:020000040800F2
:10000000007C00208D4400089544000897440008B7
:10001000994400089B4400089D440008000000002B
:100020000000000000000000000000009F440008E5
:10003000A144000800000000A3440008FB1D0008C4
:10004000A7440008A7440008A7440008A7440008E4
:10005000A7440008A7440008A7440008A7440008D4
:10006000A7440008A7440008A7440008A7440008C4
:10007000A7440008A7440008A7440008A7440008B4
:10008000A7440008A7440008A7440008A7440008A4
:10009000A7440008A7440008A7440008A744000894
:1000A000A74400081D1E0008A7440008A744000834
:1000B000591E0008A7440008A7440008A7440008E8
:1000C000A7440008A7440008A7440008A744000864
:1000D000A7440008A7440008070F00084B1C0008AD
:1000E000A7440008A7440008A7440008A744000844
:1000F000A7440008A7440008A7440008A744000834
:10010000A7440008A7440008A7440008A744000823
:10011000A7440008A7440008A7440008A744000813
:10012000A7440008A7440008A7440008A744000803
:10013000A7440008A7440008A7440008A7440008F3
:10014000A7440008A7440008A7440008A7440008E3
:10015000A7440008A7440008A7440008A7440008D3
:10016000A7440008A7440008A7440008A7440008C3
:10017000A7440008A7440008A7440008A7440008B3
:10018000A7440008A7440008DFF810D00CF0FEFFD9
:100190000CF054FC0048004749050008007C002092
:1001A00070B504460D4600BF4021054804F006F82E
:1001B0000028F9D0E1B2024803F050FF204670BD9C
:1001C0000044004030B503460C464FF0FF3200219A
:1001D00008E0585C5040C0B2E54D55F8200080EA78
:1001E0001222491CA142F4D3D04330BD2DE9F04F77
:1001F000C9B04FF0FE094FF0A00A4FF0A10BA220AA
:100200004890A3204790A4204690A5204590A62082
:100210004490FD200290D748007848457ED1D548CB
:1002200046783146D4A00DF091FAD248847880788F
:10023000D7490870544503D1D6A00DF087FA2BE0BA
:100240005C4503D1D8A00DF081FA25E0489884429E
:1002500003D1DCA00DF07AFA1EE04798844203D166
:10026000E0A00DF073FA17E04698844203D1E4A0B1
:100270000DF06CFA10E04598844203D1E6A00DF031
:1002800065FA09E04498844203D1E9A00DF05EFAD2
:1002900002E0EDA00DF05AFAB64887791FB9EEA03A
:1002A0000DF054FA03E03946F2A00DF04FFAF6A033
:1002B0000DF04CFA002510E0E81DAE49085C04A9D9
:1002C0004855E81DAB49085CF4494855E81DA94A62
:1002D000115CF3A00DF03AFA6D1CB542ECDBB1A055
:1002E0000DF034FAF0A00DF031FA00250DE0F01D0C
:1002F0002844A049085C03A94855F01D28449D4A9C
:10030000115CE7A00DF022FA6D1C042DEFDBA5A017
:100310000DF01CFA9DF80C00000600E03CE09DF892
:100320000D1040EA01409DF80E1040EA01209DF8B2
:100330000F1040EA01084146E0A00DF007FA04A8BA
:100340000CF0A4FA0146019004A8FFF73BFF054614
:100350002946E1A00DF0FAF904A80CF097FA054639
:10036000294604A8FFF72EFF404503D1E2A00DF077
:10037000EDF902E0EEA00DF0E9F97E4906F10B007F
:10038000095C0298814203D1F8A00DF0DFF906E084
:10039000FBA00DF0DBF902E0FEA00DF0D7F949B0AB
:1003A000BDE8F08F30B52DED028B81B0BB48817870
:1003B000407801EB0025B9480179C07801EB0020B5
:1003C000FE490860B5488179407901EB0020FC497D
:1003D0000860B248017AC07901EB0020F949086051
:1003E000AE48817A407A01EB0020F7490860AB48BB
:1003F000017BC07A01EB0020F4490860A748817BAB
:10040000407B01EB0020F2490860A448017CC07BDE
:1004100001EB0020A0F5FA700A2190FBF1F000EE4C
:10042000100AB8EEC00AB0EE408A9C48817C407C3D
:1004300001EB00200A2190FBF1F000EE100AB8EE6B
:10044000C00AF0EE408AFF24002004E09349095CD2
:10045000611ACCB2401C1228F8DD9048C07CA04242
:100460000CD1DCA00DF072F90020034615228B4957
:100470000090DB48006805F01BFE0BE0D9A00DF0F2
:1004800065F900200346152284490090D44800688D
:1004900005F00EFE0BF0A5FED5A2022100200BF008
:1004A00042FF102004230090C44802210268182053
:1004B0000BF0F7FECFA2022140200BF034FF1020FA
:1004C00004230090C1480221026860200BF0E9FE7D
:1004D000CAA2042100200BF026FF10200423009064
:1004E000B8481946026818200BF0DBFEC4A20421AC
:1004F00040200BF018FF102004230090B448194648
:10050000026860200BF0CDFEBFA2062100200BF098
:100510000AFF102003230090A9480621026820202A
:100520000BF0BFFEBAA2062140200BF0FCFE10200B
:1005300005230090A4480621026858200BF0B1FE64
:1005400001B0BDEC028B30BD1FB5A8200CF074F8D3
:100550000BF070FF0BF045FEAF480823802200210E
:10056000009008460BF02BFF4FF4A06056E100000E
:100570008CF30008682C002044617461206C656E67
:1005800067746828737472293A25640A00000000B1
:10059000DC04002053746174653A486F73742073EF
:1005A000746172740A00000053746174653A41709A
:1005B000706C69636174696F6E20636F6E74726FC3
:1005C0006C0A000053746174653A50657269706812
:1005D0006572616C20666F7277617264696E670A1A
:1005E0000000000053746174653A50657269706868
:1005F0006572616C2073686F77696E670A0000002E
:1006000053746174653A52657475726E20726567D1
:1006100069737465720A000053746174653A5265B7
:100620007475726E20636F6E74726F6C0A000000D6
:1006300053746174653A5472616E736D69742063AA
:100640006F6E74726F6C0A0053746174652045722A
:10065000726F72210A0000005065726970686572DD
:10066000616C2049443A486F73742073656E640A64
:10067000000000005065726970686572616C204905
:10068000443A253032580A004D657373616765201E
:10069000636F6E74656E743A00000000672D002071
:1006A000253032582000000050726F746F636F6CF9
:1006B0002043524320636865636B3A004D65737352
:1006C00061676520636F6E74656E742043524330BA
:1006D000313A25580A0000004D6573736167652043
:1006E000636F6E74656E7420435243206368656364
:1006F0006B3A25580A000000436865636B207468F4
:1007000065206D65737361676520636F6E74656ED8
:10071000742C207468652070726F746F636F6C2026
:10072000697320636F7272656374210A00000000B0
:100730004D65737361676520636F6E74656E7420B9
:1007400076616C69646174696F6E206661696C655D
:10075000642C20706C65617365207265202D207497
:1007600072616E73666572210A000000456E642036
:100770006F662070726F746F636F6C210A000000E7
:1007800050726F746F636F6C206572726F72210AA2
:10079000000000004572726F722021204E6F74209D
:1007A0007374616E64617264204E796D7468207038
:1007B000726F746F636F6C210A000000E404002004
:1007C000E8040020EC040020F0040020F4040020E1
:1007D000F8040020436865636B204F4B0A0000005B
:1007E00084040020436865636B2046696C650A00D9
:1007F000434F3A00504D32353A0000004F333A0033
:10080000504D31303A000000534F323A00000000A2
:100810004E4F323A000000000000002001F050FB73
:10082000002003230622052100900BF0B3FB0024D7
:10083000002600BF4FF0A20A4FF0FD0B00BF0027BB
:1008400001F024FA1E2001F0C9FAF8A00CF07EFF96
:10085000FCA00CF07BFF40F6B83001F0BFFA0BF0C3
:10086000C0FC01200190E0E1019858B30020019004
:1008700000231A46FA49FB48006805F0F1FC3220D3
:1008800001F0ACFAF84AF949F648006806F04BF96D
:1008900000221146F348006805F0D4FE4FF47A7048
:1008A00001F09CFA00F046FA322001F097FAF04885
:1008B00000680068C168EE48006888474FF4FA7124
:1008C00010EB0108EA4800680068C168E848006861
:1008D0008847B0EB080071F1000115D3E4480068C7
:1008E0000068C168E248006888474FF4FA7110EB6D
:1008F0000108E049DB48006800F03CFDDD4AD948CA
:100900000168DD4800F032FBD648006809F09CFB26
:10091000DA48006878B9DA480078504508D10120F3
:10092000D84908600BF05DFC0120D449086002E062
:100930000020D4490860D4480068002867D000200F
:1009400003461522D1490090C648006805F0B0FB67
:100950000BF047FCAFF26812022100200BF0E3FC21
:10096000102004230090CA480221026818200BF0CE
:1009700098FCAFF28012022140200BF0D4FC102032
:1009800004230090C3480221026860200BF089FC18
:10099000AFF29812042100200BF0C5FC10200423B4
:1009A0000090BD481946026818200BF07AFCAFF29F
:1009B000B012042140200BF0B6FC1020042300905C
:1009C000B6481946026860200BF06BFCAFF2C81203
:1009D000062100200BF0A7FC102003230090B04854
:1009E0000621026820200BF05CFCAFF2DC1206212D
:1009F00040200BF098FC102005230090A948062108
:100A0000026858200BF04DFC00209F490860A64862
:100A1000006890B31322022110200BF09FFC1422D7
:100A2000022120200BF09AFC1522022130200BF02D
:100A300095FC1622022140200BF090FC1722022187
:100A400050200BF08BFC1822022160200BF086FC5A
:100A50001922052120200BF081FC1A2205213020CB
:100A60000BF07CFC1B22052140200BF077FC1C22A4
:100A7000052150200BF072FC96E0FFE781480068EA
:100A8000002850D11B22002108460BF067FC1C22D5
:100A9000002110200BF062FC2122002120200BF00D
:100AA0005DFC2222002130200BF058FC2322032180
:100AB00000200BF053FC1D22032110200BF04EFCF4
:100AC0001E22032120200BF049FC1F22032130208D
:100AD0000BF044FC2022032140200BF03FFC1B22A2
:100AE000032150200BF03AFC1C22032160200BF064
:100AF00035FC0E22062110200BF030FC0F220621BF
:100B000020200BF02BFC1022062130200BF026FCBD
:100B10001B22062140200BF021FC1C220621502024
:100B20000BF01CFC40E05748006801283CD10E2225
:100B3000002108460BF012FC0F22002110200BF0C0
:100B40000DFC1022002120200BF008FC11220021B6
:100B500030200BF003FC1222002140200BF0FEFBA2
:100B6000AFF27432022100200BF0DDFBAFF27C32D9
:100B7000022140200BF0D7FBAFF28032042100208D
:100B80000BF0D1FBAFF28832042140200BF0CBFBFD
:100B9000AFF28C32062100200BF0C5FBAFF2903291
:100BA000062140200BF0BFFB00BF02A80BF08EFA1D
:100BB0000546D5B1002416E002A8005D3B498855E2
:100BC00002A8005D58450AD1701CC6B2002623A0B9
:100BD0000CF0BCFDFFF70AFBFFF7E4FBE5E7701C38
:100BE000C6B2601CC4B2AC42E6DB3148008800F4F7
:100BF0000040D0B12E4890F800902EA00CF0A6FD39
:100C000000270DE03248C15D324803F027FA00BFEB
:100C10004021304803F0D2FA0128F9D1781CC7B23C
:100C20004F45EFDB0020224908801DE60D41697227
:100C30004477696E67204E796D70682076312E3169
:100C4000200D0A00687474703A2F2F7777772E6121
:100C500069726477696E672E636F6D200D0A0000FC
:100C60007D05002084040020F42E0020F3170008E6
:100C70008004002088040020C82E0020D804002012
:100C8000DC040020E0040020D4040020672D0020B4
:100C9000E4040020F4040020EC040020F804002008
:100CA000E8040020F0040020D0040020682C00207C
:100CB0008E0500200D0AE682A8E58F91E98081E784
:100CC0009A84E6B688E681AFE4B8BA3A0D0A000025
:100CD000342F00200010014038B504200CF022FD14
:100CE00004460D49016000BF0C4901600C480460D6
:100CF000002003460246009009480168094803F0B5
:100D000051FC09480168094807F036FA06480168AD
:100D100007480AF06BFF38BDF00D0108900D01087F
:100D200080040020F816002084040020880400209D
:100D3000242C002000B58DB007480190074803908F
:100D400007480C9000231A4601A90648006803F0E2
:100D50002BFF0DB000BD0000E2D50F00000A01031B
:100D6000FC0400208404002010B500220121114859
:100D70000AF045FF4022104910480BF055FD10BD08
:100D800010B5002201210B480AF039FF4FF48060B2
:100D90000A49086048608860C860086148618861E5
:100DA000C861086248628862C862086348638863F1
:100DB000C86310BD242C00203D05002090040020B5
:100DC00000B52DED068BEDB0B0EE409AF0EE609AD6
:100DD000B0EE418AF0EE618A324A19EE100A19EE3D
:100DE000901A1061516130480168684605F058FE5C
:100DF000CC2269463AA80BF017FD1C224AA933A859
:100E00000BF012FD2748DDE93312016042602648ED
:100E10000168684605F044FECC2269463AA80BF00A
:100E200003FD1C224AA933A80BF0FEFC1D48DDE996
:100E300035128160C2601822014667A80BF0F4FCED
:100E40009DED6B2B9DED691B9DED670B174808F021
:100E5000D2FFB0EE480A154808F0EDFF18EE900AF0
:100E60000BF022FF41EC1A0BB0EE4A0AF0EE6A0AD0
:100E70000E4808F0D7FF002211460C4808F0CDFBC1
:100E80006DB0BDEC068B00BD10B5002211460748C1
:100E900008F037FC10BD10B503480168034808F09E
:100EA00014FB10BD7C2E002084040020442E002062
:100EB00000F07F0200EE102AB8EEC00AF0EE400A01
:100EC00000EE101AB8EE400AB0EE401A00F08002B0
:100ED00062B1DFEDF21AB0EE410A00EEA10AF1EEC6
:100EE000401A9FEDEF2A81EE820A7047DFEDEB1A80
:100EF000B0EE410A00EEA10A9FEDE92AC0EE021A07
:100F0000B0EE610AF1E710B52021E64803F056F98A
:100F100001282AD1E34803F0A5F8C4B2E248406AA8
:100F200048B9FA2C20D1E048416A001D4454012000
:100F3000DD49486218E0FE2C0DD1DB48416A001DF6
:100F40004454001F406A401CD74988620020486210
:100F50000120086008E0D448416A001D4454001F85
:100F6000406A401CD049486200BF10BDF0B52DED6D
:100F7000028BE9B004460D4616462068012802D1CE
:100F80000020206003E069B0BDEC028BF0BD207949
:100F9000FA2802D16079FB2800D0F4E7A0790A286A
:100FA0007DD2DFE800F0050B0E1A26DFF1F0EFEE40
:100FB00000221146284605F045FB64E1FFF7BAFE22
:100FC00061E1E07908B1012000E000200146002342
:100FD0001A46284604F0C1FE55E1E07908B1012027
:100FE00000E00020014600231A46304607F085FA4B
:100FF00049E1E079012871D1207AAC490870A17AE1
:10100000607AFFF755FF10EE100AA849C1F80100F9
:10101000217BE07AFFF74CFF10EE100AA349C1F8DC
:101020000500A17B607BFFF743FF10EE100A9F498C
:10103000C1F80900217CE07BFFF73AFF10EE100AAF
:101040009A49C1F80D00304607F07CFB0121880762
:1010500002F0CEF9A17A607AFFF72AFF10EE107A3B
:1010600038460BF021FE41EC180B53EC182B90A0E6
:101070000CF06CFB217BE07AFFF71AFF10EE107A80
:1010800038460BF011FE41EC180B53EC182B8CA0DA
:101090000CF05CFBA17B607BFFF70AFF00E0F1E056
:1010A00010EE107A38460BF0FFFD41EC180B53ECB4
:1010B000182B87A00CF04AFB217CE07BFFF7F8FEA1
:1010C00010EE107A38460BF0EFFD41EC180B53ECA4
:1010D000182B82A00CF03AFB43E0FFE7E0790228EE
:1010E0003FD1A17A607AFFF7E3FE10EE107A38461E
:1010F0000BF0DAFD41EC180B53EC182B6CA00CF044
:1011000025FB217BE07AFFF7D3FE10EE107A3846FC
:101110000BF0CAFD41EC180B53EC182B68A00CF037
:1011200015FBA17B607BFFF7C3FE10EE107A3846FB
:101130000BF0BAFD41EC180B53EC182B64A00CF02B
:1011400005FB217CE07BFFF7B3FE10EE107A3846FA
:101150000BF0AAFD41EC180B53EC182B5FA00CF020
:10116000F5FA90E0E079012804D002280DD0032898
:1011700019D111E000231A460121304607F065F825
:1011800011E074E04DE02DE00FE000231A46042149
:10119000304607F05AF806E000231A46062130468A
:1011A00007F053F800BF00BF6DE0E07930B9FFF7FA
:1011B000E7FD00214C4802F01BF912E0E07902281B
:1011C00006D1FFF7D1FD0121474802F011F908E0EF
:1011D000E079012805D1FFF7D3FD0121424802F053
:1011E00007F950E0E079C8B9207A0BF050FD41ECE6
:1011F000180BA07A00EE100AB8EE400AF0EE401A82
:10120000607A00EE100AB8EE400AB0EE401AB0EE76
:10121000480AF0EE680AFFF7D3FD01E0FFF734FE5D
:1012200031E02946684605F03BFCCC22694636A8E9
:101230000BF0FAFADDF8DA003390DDF8DE003490D6
:10124000BDF8E200ADF8D40028A033990CF07EFA86
:10125000294603A805F024FCCC2203A936A80BF0EC
:10126000E3FA9DF89D1126A00CF070FA0BE0E079EE
:10127000012802D100F01DFB03E0E07908B900F07D
:1012800042FB00E000BF00BF00BF7CE60648002133
:1012900001604162816200BF70470000000080432E
:1012A0000000C84200440040C82E0020102C00203E
:1012B000726F6C6C5F6F725F78203D25660A00006C
:1012C00070697463685F6F725F79203D25660A00FC
:1012D0007468725F7A203D25660A00007961772084
:1012E0003D25660A0A0000000000014054696D6552
:1012F0005374616D702069732025640D0A0000002D
:101300004261747465727920636170616369747994
:101310002072656D61696E7320256420706572634B
:10132000656E740D0A0000002DE9F04107460C4679
:101330001646254614B90020BDE8F0810BE000BF39
:1013400040210A4802F03AFF0028F9D015F8011BA5
:10135000064802F083FE3000A6F10106EFD101201D
:10136000EAE7024602480068002170470048004052
:10137000900500207CB504460D4600BF94F8580641
:10138000E0B1002084F8580600BF00231A4601216E
:10139000204604F0E2FC642000F020FD0220ADF8BD
:1013A0000400204605F0AEF9ADF806000020034623
:1013B000042201A90090204604F07AFE00BF94F8B0
:1013C0005906E0B1002084F8590600BF00231A46F0
:1013D0001946204604F0C1FC642000F0FFFC032005
:1013E000ADF80400204605F08DF9ADF806000020A8
:1013F0000346042201A90090204604F059FE00BFD4
:1014000094F85A06C0B1002084F85A0600BFFFF7CE
:1014100091FC642000F0E2FC0420ADF804002046BA
:1014200005F070F9ADF8060000200346042201A97A
:101430000090204604F03CFE00BF94F85B06E0B14B
:10144000002084F85B0600BF00231A4601212846CD
:1014500007F053F8642000F0C1FC0520ADF804004B
:10146000204605F04FF9ADF806000020034604229F
:1014700001A90090204604F01BFE00BF94F85C0612
:10148000E0B1002084F85C0600BF00231A4619462C
:10149000284607F032F8642000F0A0FC0620ADF8E2
:1014A0000400204605F02EF9ADF8060000200346A2
:1014B000042201A90090204604F0FAFD00BF94F830
:1014C0005D06E0B1002084F85D0600BF00231A46E7
:1014D0000421284606F0B9FE642000F07FFC0720B6
:1014E000ADF80400204605F00DF9ADF80600002027
:1014F0000346042201A90090204604F0D9FD00BF54
:1015000094F85E06E0B1002084F85E0600BF002378
:101510001A460621284606F098FE642000F05EFC7C
:101520000820ADF80400204605F0ECF8ADF8060000
:1015300000200346042201A90090204604F0B8FDD3
:1015400000BF94F85F06E0B1002084F85F0600BF9A
:1015500000231A460121284606F077FE642000F099
:101560003DFC0920ADF80400204605F0CBF8ADF8AD
:10157000060000200346042201A90090204604F042
:1015800097FD00BF94F86806E8B1002084F868066B
:1015900000BF4220ADF804000B48C06B012805D104
:1015A00000F0B1F980B2ADF8060004E000F081F976
:1015B00080B2ADF8060000200346042201A9009085
:1015C000204604F075FD7CBDF42E002070B52DED95
:1015D000068B04460D46F0EE408AB0EE608AB0EE0F
:1015E000419AF0EE619A38EEC90AB0EE40AA38EEA0
:1015F000690AF0EE40AA9FEDC80A2AEE800A84ED3F
:10160000000AB0EE480A0BF099F8DFEDC30A6AEE63
:10161000200A20EE200A85ED000ABDEC068B70BD85
:101620000FB400B52DED048B83B068469FEDBB0A67
:1016300080ED000A9FEDB90A80ED010A9FEDB70A1F
:1016400080ED020A00BF9DED0F1BB0EE410AF0EEE7
:10165000610A51EC100B0BF06BFB08EE100A9DEDCC
:10166000111BB0EE410AF0EE610A51EC100B0BF0C9
:101670005FFB08EE900A9DED081BB0EE410AF0EE0C
:10168000610A51EC100B0BF053FB09EE100A9DEDB3
:101690000A1BB0EE410AF0EE610A51EC100B0BF0A0
:1016A00047FB09EE900AF0EE481AB0EE681AF0EE29
:1016B000490AB0EE690A01A96846FFF787FF9DED68
:1016C0000C0A8DED020A9DED000ADDED010A9DED8B
:1016D000021A03B0BDEC048B5DF814FB00B52DEDD0
:1016E000048B8DB08E4890ED050ADFED8E0AB4EEC6
:1016F000E00AF1EE10FA0FD2DFED881AB3EE091A04
:10170000DFED860A9FED850A9121874807F05FF893
:101710000DB0BDEC048B00BD814890ED0E0ADFEDED
:10172000830A30EE200A80ED0E0AD0ED0E0AB0EEEC
:10173000001A60EE810AB0EE600A0BF03BF8F3EE9F
:10174000090A20EE200AB0EE408A7548D0ED0E0A54
:10175000B0EE600A0AF0F2FF20EE080AF0EE408ACE
:101760006F48D0ED0E0AB0EE600A0BF023F820EEC1
:10177000080AB0EE409A19226949193103A80BF002
:1017800053F809226649103168460BF04DF8644859
:101790000FC8FFF745FF8DED0A0ACDED0B0A8DED61
:1017A0000C1A9DED0B1A39EE411AF0EE410A9DED2F
:1017B0000A1A38EEC11AB0EE410ADFED581AB3EE3C
:1017C000091A9121584807F002F8554890ED0E0A81
:1017D000DFED570AB4EEE00AF1EE10FA06DD9FEDF8
:1017E0004F0A80ED0E0A00204D49C86300BF00BFBC
:1017F0008EE72DE9F043E7B007468846914608F1A9
:101800000C054C462878022850D1687800284DD124
:10181000AD1C2E46307800F02000C8B1394601A832
:1018200005F03EF9CC2201A934A80AF0FDFF1922E7
:1018300044A920460AF0F8FFE06B012808D194F88B
:101840003300032804D1606B012801D1FFF746FF64
:10185000308800F40070002828D03234607820707E
:10186000384604F03AFF607014F8320901281DD19F
:1018700094F83300032819D1394601A805F010F96E
:10188000CC2201A934A80AF0CFFF192244A904F1FF
:1018900019000AF0C9FF606B18B926A00BF056FFBB
:1018A00002E02AA00BF052FF0120606367B0BDE8A0
:1018B000F08310B51A48406B01280DD1184890EDFF
:1018C000050AF6EE000AB4EEE00AF1EE10FA03D3D0
:1018D00090F8330003280CD09FED100A104880EDDB
:1018E0000E0A00200E49C8631FA00BF02FFF012035
:1018F00010BD9FED0A0A0A4880ED0E0A0120084932
:10190000C8630020F4E79FED050A054880ED0E0A44
:1019100000200349C863704732A5C24A0000000096
:10192000F42E00200000C441880400206F12033B05
:10193000C3F5C840486F6D65204C6F636174696F73
:101940006E20536574210D0A00000000486F6D651C
:10195000204C6F636174696F6E20557064617465AB
:1019600064210D0A00000000506C656173652074ED
:10197000616B65206F6666206669727374210D0A5B
:10198000000000001CB50121084601F0BCFA0C2043
:10199000009002208DF804008DF8050000208DF8DD
:1019A000060001208DF807006946B04801F05EF896
:1019B00007220221AD4801F0E4F807220321AB48D9
:1019C00001F0DFF81CBD1CB50121022001F09BFADB
:1019D0004FF44060009002208DF804008DF805005F
:1019E00000208DF8060001208DF807006946A04808
:1019F00001F03CF807220A219D4801F0C2F80722B5
:101A00000B219B4801F0BDF81CBD1CB50121084607
:101A100001F079FA4FF4C060009002208DF80400C4
:101A20008DF8050000208DF8060001208DF80700D4
:101A300069468E4801F01AF8072209218B4801F007
:101A4000A0F807220A21894801F09BF81CBD1FB5A8
:101A5000FFF798FF0121480401F088FA4FF4E130C4
:101A600000900020ADF80400ADF80600ADF80800C5
:101A7000ADF80C000C20ADF80A0069467D4802F074
:101A80003AFA012240F225517A4802F072FB012114
:101A9000784802F0B8FA00BF8021764802F08EFB49
:101AA0000128F9D11FBD1FB5FFF7AFFF012110209D
:101AB00001F06DFA4FF4E13000900020ADF8040021
:101AC000ADF80600ADF80800ADF80C000C20ADF83C
:101AD0000A006946684802F00EFA012240F22551D8
:101AE000654802F046FB0121634802F08CFA00BF12
:101AF0008021614802F062FB0128F9D11FBD1FB5AA
:101B0000FFF761FF0121880401F030FA4FF46130E2
:101B100000900020ADF80400ADF80600ADF8080014
:101B2000ADF80C000C20ADF80A006946534802F0ED
:101B3000E2F9012240F22551504802F01AFB01213E
:101B40004E4802F060FA00BF80214C4802F036FB9C
:101B50000128F9D11FBD0EB54FF4A06000F0B0F917
:101B600004208DF8090003208DF80A0027208DF845
:101B7000080001208DF80B0002A800F0A6F9032050
:101B80008DF8050002208DF8060026208DF804004F
:101B900001208DF8070001A800F097F902208DF8C8
:101BA000010001208DF8020025208DF800000120A1
:101BB0008DF80300684600F088F90EBD10B5FFF7F8
:101BC00046FFFFF79CFFFFF76EFFFFF7C4FF10BD56
:101BD00010B540F22551284802F006FB10B3264804
:101BE00002F040FAC4B22648008800F40040C8B9A8
:101BF0002348008800F4804060B10A2C03D0002004
:101C00001F49088020E01E48008840F400401C491D
:101C1000088019E00D2C06D11948008840F4804056
:101C20001749088010E016480088C0F30D001549D8
:101C30000C5413480088401C11490880084600884D
:101C4000C72801DD0020088010BD10B520210B48F9
:101C500002F0B4FA012808D1084802F003FAC4B22D
:101C600021460948006805F0FCFF10BD0000024055
:101C700000040240004400400010014000480040C1
:101C80008E050020342F00208404002010B5FFF7BB
:101C900095FF00F075F800F003F800F038F810BD7B
:101CA0001FB50121084601F072F90121084601F033
:101CB0006EF90020ADF80C00ADF80600C7200290C8
:101CC00042F2CF00ADF8040000208DF80E0001A90B
:101CD000704801F004FB19208DF8000003208DF8F6
:101CE00001008DF8020001208DF80300684600F025
:101CF000ECF80121674801F0A7FF01221146654871
:101D000001F08EFF0021634801F072FB1FBD1FB57B
:101D10000121084601F02AF90121084601F026F9BF
:101D20000020ADF80C00ADF80600C7200290272077
:101D300002904AF20F40ADF8040001A94FF0804034
:101D400001F0CDFA1C208DF8000002208DF8010072
:101D500003208DF8020001208DF80300684600F092
:101D6000B4F80121880701F06FFF012211469007A6
:101D700001F056FF00214FF0804001F039FB1FBDFC
:101D800030B5454800684FF47A72B0FBF2F1B1F11A
:101D9000807F01D301201DE021F07F40401E4FF0E5
:101DA000E022506150170022002807DA13071D0EA9
:101DB0003A4B00F00F04241F1D5503E013071C0EBF
:101DC000374B1C5400BF00204FF0E02290610720E9
:101DD0001061002008B100BFFEE730BD002106E021
:101DE00047F2305100BF0A00A1F10101FBD102000E
:101DF000A0F1010398B2F3D170472A4800222A4B80
:101E00000168591A72EB020002DA002025490860C5
:101E100024480068401C23490860704700B59DB005
:101E200001211C4801F013FF01280FD134221F4962
:101E300068460AF0F9FC40221C490C390DA80AF04A
:101E4000F3FC1B480DA90EC909F002FF012111483E
:101E500001F0FAFE1DB000BD10B50121880701F0A8
:101E6000F6FE012811D113488079042808D11148C1
:101E7000C079012804D11049104806F063FC04E041
:101E800000214FF0804001F0B3FA0121880701F0F2
:101E9000DBFE10BD00000140A405002018ED00E0AD
:101EA00000E400E090050020009C57FC9C0400200A
:101EB000242C0020C82E0020102C00208804002094
:101EC00032490143324A1160704770B50021002346
:101ED0000F22C4781CB32E4C246804F4E064C4F5CB
:101EE000E064C4F30721C1F10404E3B20A41447879
:101EF0009C40E1B28478144021430C07210E254C0C
:101F000005786155047804F01F050124AC4005787C
:101F10006D11AD0005F1E025C5F8004109E0047838
:101F200004F01F050124AC401B4D0678761145F8DE
:101F3000264070BD194A0A400243154B1B1F1A6008
:101F4000704739B1124A121D12680243104B1B1D13
:101F50001A6006E00E4A121D126882430C4B1B1DCC
:101F60001A607047042808D14FF0E021096941F058
:101F700004014FF0E022116107E04FF0E021096910
:101F800021F004014FF0E022116170470000FA05D2
:101F90000CED00E000E400E080E100E080FFFF1FC6
:101FA00010B50446FE48844209D10121480601F0DB
:101FB00047F800214FF0007001F042F808E00121DD
:101FC000880601F03DF800214FF0806001F038F8FC
:101FD00010BD30B5024600200023146824F002042E
:101FE0001460146844F00104146000E05B1C546841
:101FF00004F001041CB94FF6FF74A342F6D15468F3
:1020000004F001040CB900206CE08C79012C04D19F
:10201000146844F08004146003E0146824F0800421
:102020001460CC79012C04D1146844F0400414608D
:1020300003E0146824F0400414600C7A012C04D1ED
:10204000146844F02004146003E0146824F02004B1
:1020500014604C7A012C04D1146844F0100414600C
:1020600003E0146824F0100414608C7A012C04D16D
:10207000146844F00804146003E0146824F00804B1
:102080001460CC7A012C04D1146844F00404146068
:1020900003E0146824F0040414608C78A407CD785D
:1020A00044EA05640D7944EA05444D7944EA05544F
:1020B0000D886D1E2C43D461146824F00104146053
:1020C000002300E05B1C546804F001041CB14FF6CF
:1020D000FF74A342F6D1546804F001040CB100204F
:1020E00000E0012030BD10B50021837A012202FA00
:1020F00003F1AC4A126842F00102AA4B1A60A94AE5
:102100001C3212688A43A74B1C331A60027BCAB97F
:10211000A44A0C3212688A43A24B0C331A604288DC
:10212000C38842EA03439F4A4032847A42F83430FB
:102130000288838842EA03439A4A4032847A02EB57
:10214000C4025360027B012A19D1964A0C321268EC
:102150000A43944B0C331A604288038842EA0343D3
:10216000904A4032847A42F83430C288838842EA06
:1021700003438C4A4032847A02EBC4025360C27A31
:102180003AB9884A121D12688A43864B1B1D1A6091
:1021900006E0844A121D12680A43824B1B1D1A6016
:1021A000028932B97F4A143212688A437D4B143354
:1021B0001A600289012A06D17A4A143212680A4347
:1021C000784B14331A60427B012A06D1754A1C32BF
:1021D00012680A43734B1C331A60724A126822F069
:1021E0000102704B1A6010BD00218171C171017232
:1021F00041728172C1728170C1700321017102212B
:1022000041710121018070476649096841F001016F
:10221000644A11601146096843F60E729143614A9F
:1022200011601146096841EA0021116011460968F0
:1022300021F001011160704721B1026842F480323F
:10224000026003E0026822F4803202607047E1B16C
:10225000026842F0800202604FF4C272125842F4E7
:1022600080734FF4C27213504FF4CA72125842F482
:1022700080734FF4CA7213504FF4D272125842F462
:1022800080734FF4D27213501BE0026822F0800278
:1022900002604FF4C272125822F480734FF4C2727B
:1022A00013504FF4CA72125822F480734FF4CA725A
:1022B00013504FF4D272125822F480734FF4D2723A
:1022C0001350704710B502460020936803F08063F6
:1022D000B3F1806F00D110E0936803F00063B3F1B5
:1022E000006F01D1012008E0936803F08053B3F13F
:1022F000805F01D1022000E00420042879D002F59B
:10230000C07303EB00131B6803F0010402F5C073F4
:1023100003EB00131C600B7A7BB94B7A0C8843EA01
:10232000445302F5C07404EB00142468234302F5FF
:10233000C07404EB0014236010E00B7A4C6843EA8D
:10234000C4034C7A234302F5C07404EB00142468E0
:10235000234302F5C07404EB001423608B7A03F06E
:102360000F038B7202F5C07303EB00135B6823F05D
:102370000F0402F5C07303EB00135C6002F5C07339
:1023800003EB00135B688C7A234302F5C07404EB03
:10239000001463608B7B1C064B7B44EA034403E020
:1023A00000640040006600400B7B44EA0323CC7AC3
:1023B000234302F5C07404EB0014A3608B7C1C065D
:1023C0004B7C44EA03440B7C44EA0323CC7B234349
:1023D00002F5C07404EB0014E36002F5C07303EB74
:1023E00000131B6843F0010402F5C07303EB0013F4
:1023F0001C6010BD10B50246002321B1012907D091
:1024000002290FD109E09068F94C00EA04030BE0BF
:102410009068F84C00EA040306E09068F64C00EA85
:10242000040301E0002300BF00BFF44C181BA342CB
:1024300016D007DC83B16FF08060184470B10228B9
:1024400018D111E0B0F5007F10D0ED4C204448B118
:10245000B0F5003F0ED10BE002230DE000230BE0AE
:10246000002309E0002307E0012305E0012303E046
:10247000012301E0002300BF00BFD8B210BD21B18D
:10248000012907D002290FD109E0826842F08002B9
:1024900082600AE0826842F40042826005E082685D
:1024A00042F40002826000E000BF00BF704710B538
:1024B00000F5D87303EB01131B6803F004031372D8
:1024C000137A53B900F5D87303EB01131B6840F27C
:1024D000FF7404EA5353136009E000F5D87303EB6B
:1024E00001131B686FF0604404EAD303536000F5E6
:1024F000D87303EB01131B6803F00203537200F55A
:10250000D87303EB01135B6803F00F03937200F5BC
:10251000D87303EB01135B681B0AD37400F5D873FF
:1025200003EB01139B68D37200F5D87303EB01131F
:102530009B681C0A147300F5D87303EB01139B68A6
:102540001C0C547300F5D87303EB01139B681B0E2E
:10255000937300F5D87303EB0113DB68D37300F5B5
:10256000D87303EB0113DB681C0A147400F5D873ED
:1025700003EB0113DB681C0C547400F5D87303EBF8
:102580000113DB681B0E937421B9C36843F0200369
:10259000C36003E0036943F02003036110BD21B968
:1025A000C26842F02002C26003E0026942F02002E9
:1025B000026170470246002019B9D36803F0030096
:1025C00006E0012903D1136903F0030000E00020B5
:1025D000704710B502460B4600204FF6FF71BBB99D
:1025E000146824F0020444F00104146000E0491E61
:1025F000546804F00304012C01D00029F7D1546879
:1026000004F00304012C01D0002032E0012030E06E
:10261000012B13D1146824F00304146000E0491E58
:10262000546804F003040CB10029F8D1546804F094
:1026300003040CB100201CE001201AE0022B17D18A
:10264000146824F0010444F00204146000E0491E00
:10265000546804F00304022C01D00029F7D1546817
:1026600004F00304022C01D0002002E0012000E06D
:10267000002010BD014600200A6822F0010242F04D
:1026800002020A604A6802F00302022A00D1012015
:10269000704701464FF6FF7200200B6823F00203DB
:1026A0000B6000E0521E4B6803F00203022B01D1C5
:1026B000002AF7D14B6803F00203022B00D001205F
:1026C0007047014600208A6902F070007047014699
:1026D00000208A69100E7047014600208A69C2F303
:1026E000074070471AB143690B43436102E04369F5
:1026F0008B434361704710B50246002001F470031C
:1027000043B19369C1F3130423400BB101202DE0C1
:1027100000202BE001F0807343B15368C1F3130430
:1027200023400BB1012021E000201FE001F00063F5
:1027300043B19368C1F3130423400BB1012015E0AA
:10274000002013E001F0007343B1D368C1F3130418
:1027500023400BB1012009E0002007E01369C1F319
:10276000130423400BB1012000E0002010BD002223
:10277000244B994202D10023836111E0C1F313027B
:1027800001F000730BB1C2600AE001F080630BB18D
:10279000026105E001F000630BB1826000E042607D
:1027A00070470246002002EA01030BB1012000E05D
:1027B0000020704770B504460D4600266069284029
:1027C000002872D0B5F5807F69D01DDC082D42D07D
:1027D00006DC012D2DD0022D31D0042D7FD134E027
:1027E000102D3ED0202D42D0402D78D145E0000064
:1027F00003000004000300080000031000010008AB
:102800000001FFF77000F030B5F5004F61D009DC32
:10281000B5F5007F4AD0B5F5806F4DD0B5F5006FA6
:102820005DD150E0B5F5803F2DD0B5F5003F56D1D4
:102830002FE0A0685549FFF7B4FF064651E0E06875
:102840000321FFF7AEFF06464BE0E0680821FFF7E3
:10285000A8FF064645E0E0681021FFF7A2FF064604
:102860003FE020690321FFF79CFF064639E020691D
:102870000821FFF796FF064633E020691021FFF795
:1028800090FF06462DE060680821FFF78AFF0646A4
:1028900027E060681021FFF784FF064621E0A06969
:1028A0000121FFF77EFF06461BE01BE0A069022125
:1028B000FFF777FF064614E0A0690421FFF771FFD8
:1028C00006460EE00BE0A0697021FFF76AFF06469E
:1028D00007E060680421FFF764FF064601E0002678
:1028E00000BF00E00026304670BDB1F5007F3AD051
:1028F0000FDC202928D006DC01291CD004291DD09A
:10290000082940D11DE0402921D0B1F5807F3AD17E
:1029100026E0B1F5004F31D006DCB1F5806F25D04F
:10292000B1F5006F2FD124E0B1F5803F12D0B1F5A1
:10293000003F28D111E0154A826025E00822C260DC
:1029400022E01022C2601FE0082202611CE0102277
:10295000026119E00822426016E01022426013E092
:102960000422426010E0042242600DE00422426032
:102970000AE0002282610422426005E000228261B6
:102980000422426000E000BF00BF70470101010067
:1029900010B504468C48844208D10121084600F055
:1029A00007FB0021012000F003FB5EE08748844222
:1029B00008D10121022000F0FBFA0021022000F0E2
:1029C000F7FA52E08248844208D10121042000F045
:1029D000EFFA0021042000F0EBFA46E07D48844243
:1029E00008D10121082000F0E3FA0021082000F0BE
:1029F000DFFA3AE07848844208D10121102000F043
:102A0000D7FA0021102000F0D3FA2EE07348844258
:102A100008D10121202000F0CBFA0021202000F075
:102A2000C7FA22E06E48844208D10121402000F01C
:102A3000BFFA0021402000F0BBFA16E0694884424A
:102A400008D10121802000F0B3FA0021802000F09D
:102A5000AFFA0AE06448844207D10121801500F0F2
:102A6000A7FA0021A01500F0A3FA10BDF0B50A46A0
:102A700000210023002400BF3DE0012505FA01F3F9
:102A8000156805EA03049C4234D105684F0003260B
:102A9000BE40B543056015794E00B5400668354324
:102AA00005601579012D02D01579022D16D18568A2
:102AB0004F000326BE40B543856055794E00B540B2
:102AC000866835438560456801268E40B54345607C
:102AD000456896798E40B6B235434560C5684F006B
:102AE0000326BE40B543C560D5794E00B540C668E3
:102AF0003543C560491C1029BFD3F0BD4FF6FF71A7
:102B000001600021017141718171C171704708B587
:102B10004FF480320092009A0A430092009AC261F8
:102B2000C161009AC261C2690092C269009208BD87
:102B30000246002013690B400BB1012000E0002089
:102B400070470146086980B2704702460020536909
:102B50000B400BB1012000E000207047014648699E
:102B600080B2704701837047418370470AB1018387
:102B700000E0418370474161704742694A404261C9
:102B80007047F0B5002300244D07ED0E02FA05F35F
:102B9000CE1000F1200555F826504E07F70E0F26EF
:102BA000BE40B543CF1000F1200646F82750CE10A6
:102BB00000F1200555F8265045EA0304CE1000F137
:102BC000200545F82640F0BD000002400004024008
:102BD00000080240000C02400010024000140240B5
:102BE00000180240001C024000200240F948006822
:102BF00040F00100F74908600020F64908310860FC
:102C0000F4480068F4490840F2490860F348091D97
:102C10000860F348EF4984310860EE48006820F40A
:102C20008020EC4908600020EA490C3108607047B8
:102C30000021E84A921C117011460870704710B5C7
:102C400001460022002300204A11012A02D1E14C52
:102C5000236808E0022A03D1DE4C7034236802E0C6
:102C6000DC4C7434236801F01F02012494401C40A2
:102C70000CB1012000E0002010BD38B5002000900C
:102C80000024002500BF3120FFF7D9FF054600983A
:102C9000401C00900098B0F5A06F01D0002DF2D03C
:102CA0003120FFF7CCFF08B1012400E000242046CA
:102CB00038BD01460020C74A106820F0F80040EAFD
:102CC000C10010607047C749086070470021C14AC1
:102CD000703211701170012802D004280AD104E06A
:102CE0000121BC4A7032117005E00521B94A7032E9
:102CF000117000E000BF00BF7047BB49086070471B
:102D000070B5049C41EA82150126C6EB530645EADC
:102D10000645054345EA0465AE4E361D356070BD77
:102D2000B04908667047820142EA0172A94B8433B8
:102D30001A607047AB4988667047AA49C8647047F3
:102D400002460020A34B0833186820F0EC6042EAEA
:102D5000010318439F4B0833186070470246002058
:102D60009C4B0833186820F0784042EA010318436E
:102D7000984B08331860704701460020954A083286
:102D8000106820F003000843106070479148083035
:102D9000006800F00C007047014600208D4A0832A0
:102DA000106820F0F00008431060704701460020D2
:102DB000884A0832106820F4E050084310607047D9
:102DC00001460020834A0832106820F4604040EA3F
:102DD000C10010607047F0B50021002200240225D8
:102DE000002602237B4F08373F6807F00C0121B112
:102DF000042905D0082937D105E07C4F076036E06B
:102E00007B4F076033E0734F3F1D3F68C7F3805629
:102E1000704F3F1D3F6807F03F036EB1744FB7FB23
:102E2000F3F7DFF8B0C10CF1040CDCF800C0CCF310
:102E3000881C07FB0CF40CE06C4FB7FBF3F7DFF8D2
:102E400094C10CF1040CDCF800C0CCF3881C07FB27
:102E50000CF4604F3F1D3F68C7F301477F1C7D00A6
:102E6000B4FBF5F7076002E0604F076000BF00BFEA
:102E7000584F08373F6807F0F00109095D4F7A5C49
:102E80000768D7404760534F08373F6807F4E05161
:102E9000890A584F7A5C4768D74087604D4F08379A
:102EA0003F6807F46041490B524F7A5C4768D7404E
:102EB000C760F0BD002100F44072B2F5407F0AD136
:102EC000444A0832116821F4F8114B4A0240114378
:102ED000404A083211603F4A70321268C0F30B0357
:102EE0001A433C4B70331A6070473F4944390860BD
:102EF00070473D4940390860704740490860704755
:102F00003F490860704739B1324A30321268024393
:102F1000304B30331A6006E02E4A3032126882435A
:102F20002C4B30331A60704739B12A4A3432126858
:102F30000243284B34331A6006E0264A34321268C2
:102F40008243244B34331A60704739B1214A3832F6
:102F5000126802431F4B38331A6006E01D4A3832AC
:102F6000126882431B4B38331A60704739B1194AD3
:102F7000403212680243174B40331A6006E0154A8C
:102F8000403212688243134B40331A60704739B1A4
:102F9000104A4432126802430E4B44331A6006E072
:102FA0000C4A4432126882430A4B44331A60704719
:102FB00039B1084A103212680243064B10331A60C6
:102FC00006E0044A103212688243024B10331A6042
:102FD0007047000000380240FFFFF6FA103000246E
:102FE0000030002000004742800E47420024F400D9
:102FF00040787D0194050020FFFCFF0F5C014742F3
:10300000E011474229B15E4A126802435C4B1A60E4
:1030100004E05B4A12688243594B1A60704739B129
:10302000574A121D12680243554B1B1D1A6006E0D9
:10303000534A121D12688243514B1B1D1A60704780
:1030400039B14F4A0C32126802434D4B0C331A60AF
:1030500006E04B4A0C3212688243494B0C331A602B
:10306000704739B1464A103212680243444B10335C
:103070001A6006E0424A103212688243404B103315
:103080001A60704739B13E4A3C32126802433C4BE9
:103090003C331A6006E03A4A3C3212688243384BAD
:1030A0003C331A60704739B1354A403212680243E6
:1030B000334B40331A6006E0314A40321268824393
:1030C0002F4B40331A60704739B12D4A4432126891
:1030D00002432B4B44331A6006E0294A44321268FB
:1030E0008243274B44331A60704739B1244A4C322B
:1030F00012680243224B4C331A6006E0204A4C32DD
:10310000126882431E4B4C331A60704739B11C4A17
:103110005032126802431A4B50331A6006E0184AC4
:10312000503212688243164B50331A60704739B1DF
:10313000134AD21F12780243114BDB1F1A7006E0AC
:103140000F4AD21F127882430D4BDB1F1A70704753
:103150000B486030006840F08070094960310860B9
:10316000704701460020064A083A12680A400AB130
:10317000012000E0002070470149891F0870704756
:103180001438024010B50446FE48844208D101219B
:103190000846FFF766FF00210120FFF762FF9DE070
:1031A000B4F1804F08D101210846FFF749FF002103
:1031B0000120FFF745FF91E0F348844208D1012147
:1031C0000220FFF73DFF00210220FFF739FF85E0D5
:1031D000EE48844208D101210420FFF731FF00218D
:1031E0000420FFF72DFF79E0E948844208D101214E
:1031F0000820FFF725FF00210820FFF721FF6DE0E1
:10320000E448844208D101211020FFF719FF002172
:103210001020FFF715FF61E0DF48844208D101214B
:103220002020FFF70DFF00212020FFF709FF55E0C8
:10323000DA48844208D101210220FFF712FF002161
:103240000220FFF70EFF49E0D548844209D1012151
:103250000804FFF706FF00214FF48030FFF701FF5D
:103260003CE0D048844209D101214804FFF7F9FE2F
:1032700000214FF40030FFF7F4FE2FE0CA488442EB
:1032800009D101218804FFF7ECFE00214FF48020D2
:10329000FFF7E7FE22E0C548844208D10121402023
:1032A000FFF7CEFE00214020FFF7CAFE16E0C0481F
:1032B000844208D101218020FFF7C2FE0021802036
:1032C000FFF7BEFE0AE0BB48844207D1012180150A
:1032D000FFF7B6FE0021A015FFF7B2FE10BD0022D9
:1032E0000288A84B98420ED0AC4B98420BD0B0F15C
:1032F000804F08D0A44B984205D0A44B984202D0EE
:10330000A34B984204D14FF68F731A404B881A434F
:10331000A04B984207D0A04B984204D04FF6FF43F1
:103320001A400B891A4302804B68C3620B880385DD
:10333000944B984202D0994B984201D18B7A0386E4
:103340000123838270474FF0FF31416000210180EB
:1033500001814180817270470185828270470A46EF
:10336000002101884FF68F73194011430180704787
:1033700041627047C16270470146486A7047014622
:10338000088D704721B1028842F00202028004E0F9
:1033900002884FF6FD731A400280704721B10288FF
:1033A00042F00402028004E002884FF6FB731A40E8
:1033B0000280704721B1028842F08002028004E05E
:1033C00002884FF67F731A400280704702884FF6DA
:1033D000F7731A40028002880A430280704702880D
:1033E0004FF6FF431A40028002880A43028070476A
:1033F00021B1028842F00102028004E002884FF607
:10340000FE731A400280704770B50024002200232A
:10341000058C4FF6FE7635400584028C8388048B3C
:103420004FF68F752C40B51E2C400D882C43751E11
:103430002A408D892A434D882A43524DA84202D002
:10344000564DA84213D14FF6F7752A40CD892A432D
:103450004FF6FB752A408D882A434FF6FF652B40B7
:103460004FF6FF552B400D8A2B434D8A2B4383800B
:1034700004838D684563028470BD70B5002400220A
:103480000023058C4FF6EF7635400584028C838847
:10349000048B48F6FF752C404FF6FF452C400D88F5
:1034A0004FF6FF7606EA05252C434FF6DF752A40D6
:1034B0008D8906EA05152A434D8806EA05152A4333
:1034C000304DA84202D0354DA8421DD14FF67F7530
:1034D0002A40CD894FF6FF7606EA05152A434FF6B6
:1034E000BF752A408D8806EA05152A434FF6FF3539
:1034F0002B404FF2FF752B400D8A06EA85052B43C2
:103500004D8A06EA85052B43838004838D68856395
:10351000028470BD70B5002400220023058C4FF694
:10352000FF6635400584028C8388848B4FF68F7547
:103530002C404FF6FC752C400D882C434FF6FF5560
:103540002A408D894FF6FF7606EA05252A434D88E5
:1035500006EA05252A430B4DA84202D00F4DA8428A
:1035600038D14FF2FF752A40CD894FF6FF7606EA33
:1035700005252A434FF6FF352A408D8806EA0525A2
:103580002A4319E000000140000400400008004008
:10359000000C0040001000400014004000040140F6
:1035A0000040014000440140004801400018004034
:1035B000001C0040002000404EF6FF752B404DF6E9
:1035C000FF752B400D8A06EA05152B434D8A06EA46
:1035D00005152B43838084838D68C563028470BD89
:1035E00070B5002200230024058C4EF6FF7635408E
:1035F0000584038C8488828B48F6FF752A404FF639
:10360000FF452A400D884FF6FF7606EA05252A4336
:103610004DF6FF752B408D8906EA05352B434D8805
:1036200006EA05352B43FE4DA84202D0FD4DA842C7
:1036300008D14BF6FF752C400D8A4FF6FF7606EA4F
:1036400085152C43848082838D680564038470BD56
:10365000002101804180818081608181C18101825E
:103660004182704770B50346002000241846183088
:1036700001258D40ACB21D8CA5431D8409B10829DC
:103680000AD100EB610005684FF68F763540056082
:103690000568154305600FE00D1FC5F34E0528446E
:1036A000056848F6FF763540056005684FF6FF76F9
:1036B00006EA02263543056070BD416370478163A9
:1036C0007047C1637047016470470A460021018B4F
:1036D0004FF68F7319401143018370470A4600214A
:1036E000018B48F6FF7319404FF6FF7303EA02237C
:1036F0001943018370470A460021818B4FF68F736F
:1037000019401143818370470A460021818B48F696
:10371000FF7319404FF6FF7303EA022319438183B5
:1037200070470A460021018B4FF6F7731940114389
:10373000018370470A460021018B4FF2FF73194045
:103740004FF6FF7303EA02231943018370470A46C9
:103750000021818B4FF6F773194011438183704725
:103760000A460021818B4FF2FF7319404FF6FF7319
:1037700003EA02231943818370470A460021018B23
:103780004FF6FB7319401143018370470A4600212D
:10379000018B4FF6FF3319404FF6FF7303EA022304
:1037A0001943018370470A460021818B4FF6FB7352
:1037B00019401143818370470A460021818B4FF6DF
:1037C000FF3319404FF6FF7303EA02231943818345
:1037D00070470A460021018B4FF67F731940114351
:1037E000018370470A460021018BC1F30E014FF699
:1037F000FF7303EA02231943018370470A4600213D
:10380000818B4FF67F7319401143818370470A46BD
:103810000021818BC1F30E014FF6FF7303EA0223EF
:103820001943818370470A460021018C4FF6FD73CE
:1038300019401143018470470A460021018C4FF65C
:10384000F77319401143018470470A460021018C27
:103850004FF6DF7319404FF6FF7303EA0213194363
:10386000018470470A460021018C4FF67F7319408E
:103870004FF6FF7303EA02131943018470470A46A7
:103880000021018C4FF6FF5319404FF6FF7303EAF6
:1038900002231943018470470A460021018C4FF22C
:1038A000FF7319404FF6FF7303EA022319430184A3
:1038B00070470A460021018C4DF6FF7319404FF600
:1038C000FF7303EA023319430184704730B50023C4
:1038D00001248C40A3B2048C9C430484048C02FA1F
:1038E00001F5ADB22C43048430BD30B5002304246F
:1038F0008C40A3B2048C9C430484048C02FA01F52E
:10390000ADB22C43048430BD828B4FF2FF331A409A
:103910008283828B4FF6FF7303EA01231A4382836B
:103920007047F0B50C461546002100220026078C92
:103930004EF6FF7C07EA0C070784818B028C4FF65A
:10394000FF7707EA043640F6FF4739404FF6FF7726
:1039500007EA052739434FF6FF7707EA033739436C
:1039600045F6FF773A4046F480573A438183028414
:10397000F0BD828B4FF6F3731A408283828B0A4329
:1039800082837047F0B50C461546002100220026C0
:10399000078C4FF6FF6C07EA0C070784818B028CBB
:1039A0004FF6FF7707EA04264FF60C7739404FF6BB
:1039B000FF7707EA03172F4339434FF2FF573A4087
:1039C00046F480773A4381830284F0BD028B4FF244
:1039D000FF331A400283028B4FF6FF7303EA012381
:1039E0001A4302837047F0B50C46154600210022A9
:1039F0000026078C4FF6EF7C07EA0C070784018B43
:103A0000028C4FF6FF7707EA041640F6FF4739406D
:103A10004FF6FF7707EA033739434FF6FF7703E0A6
:103A2000000001400004014007EA052739434FF632
:103A30005F773A4046F010073A4301830284F0BDB5
:103A4000028B4FF6F3731A400283028B0A43028300
:103A50007047F0B50C46154600210022068C4FF643
:103A6000FE773E400684018B028C4FF60C76314087
:103A70007E1C06EA03162E4331434FF6F57632409C
:103A800044F00106324301830284F0BD70B505465F
:103A90000C46208850B92389A28861882846FFF700
:103AA000D8FFE1882846FFF7CBFF25E020880428CF
:103AB0000AD12389A28861882846FFF794FFE1880C
:103AC0002846FFF783FF17E0208808280AD12389BA
:103AD000A28861882846FFF755FFE1882846FFF74E
:103AE00048FF09E02389A28861882846FFF719FF6B
:103AF000E1882846FFF708FF70BD00210180418062
:103B0000012181800021C180018170472DE9F041B0
:103B100005460C4600260127608808B9022600E009
:103B20000026A088012801D1022700E00127208873
:103B3000A0B92389A28861882846FFF78AFFE18817
:103B40002846FFF77DFF23893A4631462846FFF78E
:103B50004AFFE1882846FFF739FF13E02389A2884E
:103B600061882846FFF73FFFE1882846FFF72EFFD0
:103B700023893A4631462846FFF76BFFE1882846FD
:103B8000FFF75EFFBDE8F0810146486B70470146D4
:103B9000886B70470146C86B70470146086C7047D8
:103BA0000A884B881A438B881A43CB881A430B899F
:103BB0001A434B891A438B891A43A0F84420704753
:103BC0000021018041808180C1800181418181810A
:103BD000704731B1B0F8442042F40042A0F84420CC
:103BE00005E0B0F84420C2F30E02A0F8442070476C
:103BF00021B1828842F00402828004E082884FF67C
:103C0000FB731A408280704721B1828842F0010222
:103C1000828004E082884FF6FE731A4082807047EB
:103C20001AB183890B43838102E083898B438381AB
:103C300070478182704702460020138A0B400BB107
:103C4000012000E000207047CA430282704730B56F
:103C50000246002000230024158A05EA0103958905
:103C600005EA010413B10CB1012000E0002030BDD1
:103C7000CA430282704741EA0203A0F84830704705
:103C80001AB183890B43838102E083898B4383814B
:103C9000704721B1828842F00802828004E0828865
:103CA0004FF6F7731A408280704701894FF6F87219
:103CB0001140018170470A46002101894FF68F7338
:103CC000194011430181704730B504460D4629461D
:103CD0002046FFF7F0FF208940F00700208130BD2B
:103CE0002DE9F04104460D4616461F46602D06D1CB
:103CF0003B46012231462046FFF775FE05E03B4674
:103D0000012231462046FFF7A4FE29462046FFF750
:103D1000D2FF208940F007002081BDE8F08130B556
:103D20000C4600210189C9B24FF6FF7505EA03254B
:103D3000154325432943018130BD2DE9F041054656
:103D40000E4617469846002443463A4631462846D2
:103D5000FFF7E5FF2C894FF6F870044044F00704A4
:103D60004FF68F70044044F070042C81BDE8F08160
:103D7000F0B504460D4616461F463B4632462946D8
:103D80002046FFF7CCFF208940F480402081F0BD21
:103D900082884FF68F731A40828082880A4382801D
:103DA000704702894FF6F8731A40028102890A436C
:103DB0000281704702894FF67F731A40028102899F
:103DC0000A4302817047F0B50C4615461E46002195
:103DD000002200230189028B038C4FF6F8773940CB
:103DE00021434FF6FC473A4040F201173A434FF661
:103DF000DD773B404FF6FF7707EA06172F433B433B
:103E0000018102830384F0BD21B1828842F08002E7
:103E1000828004E082884FF67F731A408280704768
:103E2000A0F850107047000010B50446FA488442CC
:103E300008D101211020FFF714F900211020FFF70D
:103E400010F957E0F548844209D101214804FFF7F1
:103E5000F7F800214FF40030FFF7F2F84AE0F0489D
:103E6000844209D101218804FFF7EAF800214FF4C8
:103E70008020FFF7E5F83DE0EA48844209D10121BE
:103E8000C804FFF7DDF800214FF40020FFF7D8F851
:103E900030E0E548844209D101210805FFF7D0F858
:103EA00000214FF48010FFF7CBF823E0DF48844275
:103EB00008D101212020FFF7D4F800212020FFF7AE
:103EC000D0F817E0DA48844209D101218807FFF7CA
:103ED000B7F800214FF08040FFF7B2F80AE0D5486C
:103EE000844207D101214005FFF7AAF800216005AF
:103EF000FFF7A6F810BD2DE9FF4705460E46002442
:103F0000A14600BFA046B08900B100BF2C8A24F4AE
:103F10004054F08804432C82AC8941F20C60844305
:103F2000B08831890843718908430443AC81AC8A65
:103F300024F44074B0890443AC826846FEF74BFF1A
:103F4000B548854202D0B948854202D1DDF80C90CF
:103F500001E0DDF80890A88900F4004040B109EBC9
:103F6000C90000EB091031684900B0FBF1F707E028
:103F700009EBC90000EB091031688900B0FBF1F7CB
:103F80006420B7FBF0F004012009642101FB1078E4
:103F9000A88900F4004040B1322000EBC800B0FB1B
:103FA000F1F000F00700044308E0322000EB0810B5
:103FB0006421B0FBF1F000F00F0004432C81BDE858
:103FC000FF874FF41651016000218180C18001817B
:103FD0000C21418100218181704710B502460020EB
:103FE000108A20F470600B884C8823438C8823430C
:103FF000CC8823431843108210BD002101804180EA
:104000008180C180704721B1828942F4005282814F
:1040100004E082894DF6FF731A4082817047028B5B
:1040200002F47F420283028B0A430283704721B16C
:10403000828942F40042828103E08289C2F30E0247
:104040008281704721B1828A42F40062828204E058
:10405000828A4FF2FF731A4082827047C1F30802CE
:104060008280704701468888C0F308007047028A42
:104070004FF6F0731A400282028A0A4302827047A6
:1040800021B1828942F00202828104E082894FF6E6
:10409000FD731A408281704782894FF2FF731A4084
:1040A000828182890A4382817047028A4FF6DF73D8
:1040B0001A400282028A0A430282704721B1028AB0
:1040C00042F48042028204E0028A4BF6FF731A40F7
:1040D00002827047818941F001018181704721B1DD
:1040E000828A42F00802828204E0828A4FF6F773E5
:1040F0001A4082827047028BD2B20283028B42EA5C
:1041000001220283704721B1828A42F0200282821A
:1041100004E0828A4FF6DF731A408282704721B131
:10412000828A42F01002828204E0828A4FF6EF73A4
:104130001A4082827047828A4FF6FB731A4082824D
:10414000828A0A438282704721B1828A42F0020247
:10415000828204E0828A4FF6FD731A4082827047A1
:104160001AB1838A0B43838202E0838A8B43838262
:104170007047F0B50346002400260025002040F6D5
:104180006A17B94200D100BF1846C1F3421401F0CA
:104190001F06012707FA06F5012C01D10C3004E0B7
:1041A000022C01D1103000E014301AB107682F43FF
:1041B000076002E00768AF430760F0BD02460020D9
:1041C000B1F5007F00D100BF13880B400BB1012077
:1041D00000E00020704701F40072B2F5007F00D1CA
:1041E00000BFCA430280704770B502460024002316
:1041F0000025002040F66A16B14200D100BFC1F38D
:10420000421501F01F03012606FA03F3012D13D115
:104210009689334017E00000001001400044004040
:1042200000480040004C0040005000400014014095
:1042300000780040007C0040022D02D1168A3340F5
:1042400001E0968A33400C12012606FA04F416881F
:10425000344013B10CB1012000E0002070BD10B556
:104260000022002340F66A14A14200D100BF0A12C6
:1042700001249440A3B2DC43048010BD0CB500209F
:10428000019000907648006840F4803074490860DE
:1042900000BF7348006800F4003000900198401C93
:1042A0000190009818B90198B0F5A06FF1D16C4851
:1042B000006800F4003010B10120009001E00020FF
:1042C00000900098012846D165484030006840F0D1
:1042D00080506349403108606248006840F44040C3
:1042E000604908605E48083000685D490831086030
:1042F0000846006840F4004008600846006840F442
:10430000A05008605848091F0860081F006840F066
:104310008070091F086000BF5148006800F00070FD
:104320000028F9D040F20570504908604C48083028
:10433000006820F003004A49083108600846006818
:1043400040F00200086000BF45480830006800F0F7
:104350000C000828F8D10CBD10B54548006840F4A1
:104360007000434908603E48006840F001003C4945
:10437000086000203A4908310860394800683D4922
:104380000840374908603C48091D0860081F00685C
:1043900020F48020091F0860002031490C3108609A
:1043A000FFF76CFF4FF0006031498039086010BDA5
:1043B00070B500200022022300240221284D083578
:1043C0002D6805F00C0020B1042806D0082834D14F
:1043D00007E02A4D2A4E356033E02A4D284E3560DD
:1043E0002FE01F4D2D1D2D68C5F380541C4D2D1D34
:1043F0002D6805F03F0154B1224DB5FBF1F5184E83
:10440000361D3668C6F3881605FB06F209E01B4D1B
:10441000B5FBF1F5124E361D3668C6F3881605FB5E
:1044200006F20F4D2D1D2D68C5F301456D1C6B0067
:10443000B2FBF3F5124E356003E0104D104E3560BF
:1044400000BF00BF064D08352D68C5F303150E4E9D
:10445000705D0B4D2D68C540094E356070BD000084
:10446000003802400070004019544007003C0240F0
:1044700088ED00E0FFFFF6FE103000240024F40079
:10448000A405002040787D01A8050020064880474B
:1044900006480047FEE7FEE7FEE7FEE7FEE7FEE729
:1044A000FEE7FEE7FEE7FEE7594300088901000842
:1044B0007FB504460D46089E41F21050055100207C
:1044C000A4F8E8060B20C4F8B001002084F8B40179
:1044D000002140F2EE600153801E01530020A4F839
:1044E000EA0684F8101BC4F8C80540F2CC5001510C
:1044F0000020C4F8C00540F2C45001510020C4F8A7
:10450000D005C4F8D80540F2D45001510020C4F8B9
:10451000E00540F2E450015140F2DC50015100202E
:10452000C4F8E80540F2EC5001510020C4F8F00551
:1045300040F2F45001510298C4F8F80540F2FC50E2
:1045400003990151002141F214500155401C0155BD
:10455000801C0155401E0155801E0655002020700C
:1045600063206060C4F89316FF20C4F8DC009FED60
:10457000EC0A84ED380A41F21052105912591268AF
:10458000516A8847C92104F1E40008F074F941F246
:104590001052105912591268916A8847204606F045
:1045A00015FE7FBD2DE9FE4306460F4614461D4607
:1045B000DDF828800195CDF8088000943946304612
:1045C000DDE90123FFF774FF3046BDE8FE830146B5
:1045D000D1F8930670477FB582B004460D460A9E17
:1045E000009629462046DDE90423FFF761FF2046B7
:1045F000FFF7EDFF204606B070BD7FB584B00446DE
:1046000016461D462A46314604F2B55008F00CF90C
:104610009DF8160000F01F01BDF8040061F30700CB
:10462000ADF80400BDF81400ADF806009DF81600C2
:10463000C0F34011BDF8040061F30F20ADF8040091
:1046400004F2B5500390029501A9204606F0CCFC77
:1046500008B070BD2DE9F04F85B004460E461746F0
:104660009846DDF838B0DDF84CA0DDF8409004F253
:10467000B51505F8018B05F801BB4A4604F2B710E1
:104680000F9908F0D1F811980390BDF8000066F377
:104690000100ADF8000009F10200019004F2B5102C
:1046A0000290BDF800006AF3CF00ADF80000129848
:1046B00080B2ADF80200BDF8000067F38200ADF8EB
:1046C0000000002004906946204605F0DAFF05B09E
:1046D000BDE8F08F2DE9F04F85B004460F46164631
:1046E0009846DDF838B0DDF848A0DDF8409004F2D7
:1046F000B51505F8018B05F801BB4A4604F2B71061
:104700000F9908F091F813980390BDF8000067F333
:104710000100ADF8000009F10200019004F2B510AB
:104720000290BDF800006AF3CF00ADF800001198C8
:1047300080B2ADF80200BDF8000066F38200ADF86B
:104740000000149804906946204605F09AFF05B0D1
:10475000BDE8F08F70B504460D462946204605F0A9
:1047600090FF70BD2DE9FF4104460D4617462868AD
:10477000C0F30920103802287CD82868C0F309202B
:10478000A0F1100205F10C0103A808F04DF8BDF8E6
:104790000C10204603F0AFFBBDF80C0009286AD2CC
:1047A000DFE800F00550732F94B5BCBBBA0040F2AF
:1047B0009A305C4B5CA25EA10090674808F0D6FF7F
:1047C0000646701C58B1B6F5806F08DA41F21051F8
:1047D0000859095909684A6D0021904707E041F2DC
:1047E00010510859095909684A6D5CA19047D4F8DD
:1047F000E30620B1D4F8E316204605F08FFDBDE8AE
:10480000FF814FF46870474B47A25C4900905248C3
:1048100008F0ACFF0646701C58B1B6F5806F08DA98
:1048200041F210510859095909684A6D0021904711
:1048300007E041F210510859095909684A6D47A12A
:10484000904784E140F2A530364B4DA24EA1009036
:10485000414808F08BFF0646701C68B1B6F5806FC2
:104860000ADA41F210510859095909684A6D0021C4
:10487000904709E06CE140E141F2105108590959B3
:1048800009684A6D35A1904761E14FF46A70254B84
:104890003BA245A10090304808F068FF0646701C16
:1048A00058B1B6F5806F08DA41F21051085909592C
:1048B00009684A6D0021904707E041F210510859FC
:1048C000095909684A6D25A1904740E140F2AB3093
:1048D000144B2BA23CA100901F4808F047FF06464E
:1048E000701C58B1B6F5806F08DA41F210510859C2
:1048F000095909684A6D0021904707E041F21051BB
:104900000859095909684A6D14A190471FE140F2FE
:10491000AE30044B1AA269E0CCE0A8E084E00000CD
:10492000F0237449C1F70008535441545553000013
:1049300025732025732C6C696E652025643A20410F
:1049400063746976617465642073756363657373FA
:1049500066756C6C790A0000FC2F00204552524F9E
:10496000523A206C6F67207072696E7465722069AC
:104970006E6E6572206661756C740A00940E010893
:104980004552524F5200000025732025732C6C694C
:104990006E652025643A2057726F6E6720706172D1
:1049A000616D657465720A0025732025732C6C692E
:1049B0006E652025643A20456E636F6465206572DC
:1049C000726F720A0000000025732025732C6C6939
:1049D0006E652025643A20444A49474F206E6F7423
:1049E00020636F6E6E65637465640A00F2A10090C7
:1049F000FE4808F0BBFE0646701C58B1B6F5806F45
:104A000008DA41F210510859095909684A6D002124
:104A1000904708E041F210510859095909684A6D58
:104A2000AFF2C801904792E040F2B230F04BAFF2E3
:104A3000B002F0490090ED4808F098FE0646701C60
:104A400058B1B6F5806F08DA41F21051085909598A
:104A500009684A6D0021904708E041F21051085959
:104A6000095909684A6DAFF20C1190476FE040F2A6
:104A7000B730DF4BAFF2F802DFA10090DB4808F05F
:104A800075FE0646701C58B1B6F5806F08DA41F223
:104A900010510859095909684A6D0021904708E0EA
:104AA00041F210510859095909684A6DAFF2541181
:104AB00090474CE040F2BA30CD4BAFF23C12D8A157
:104AC0000090CA4808F052FE0646701C58B1B6F570
:104AD000806F08DA41F210510859095909684A6D86
:104AE0000021904708E041F210510859095909681E
:104AF0004A6DAFF29811904729E0BDF80C1020469E
:104B000003F0DCF810BB40F2BF30B94BAFF29012AB
:104B1000CEA10090B54808F029FE0646701C58B199
:104B2000B6F5806F08DA41F2105108590959096841
:104B30004A6D0021904708E041F210510859095987
:104B400009684A6DAFF2EC11904700BF00BF29E041
:104B5000288980B22968C1F3046140F2C632A44BAF
:104B6000CDE900210290AFF2E812C3A19F4808F0FE
:104B7000FDFD0646701C58B1B6F5806F08DA41F2AB
:104B800010510859095909684A6D0021904708E0F9
:104B900041F210510859095909684A6DAFF2442190
:104BA000904700BF00BF2AE62DE9F04188B00446D7
:104BB0000D4616461F46D4F89306002828D140F229
:104BC000CB10BC4BAFF24822BBA10090874808F045
:104BD000CDFD804608F1010058B1B8F5806F08DAC4
:104BE00041F210510859095909684A6D002190474E
:104BF00008E041F210510859095909684A6DAFF2AD
:104C0000A42190470120B949086008B0BDE8F081AF
:104C1000D4F89306A8603022294604F2B76007F062
:104C200003FE0221C4F8BB16002004E0302204F287
:104C3000C3610A54401C2028F8DB0EB1304601E065
:104C4000AFF2DF4003214FF47A72CDE90507CDE9D9
:104C500003212C2104F2B76001220023CDE90020BA
:104C600002911A4602212046FFF734FD00BFCCE72F
:104C700003B5A3B0402113A807F0FDFD402213A8FF
:104C8000249907F0D1FD13A8129012981190129850
:104C90000178407801EB002081B22398A0F87116CA
:104CA0001298801C129000200D900E900F90109082
:104CB0000C904AE0129801780DAA0C9811540C98A7
:104CC000401C0C901298401C1290DDE91110401A03
:104CD00012283ADD4FF48070854BAFF25C32854983
:104CE0000090424808F042FD06900698401CB0B182
:104CF0000698B0F5806F12DA239800F58050D0F84E
:104D000010050590239800F58050D0F81005006834
:104D1000406D00210490DDE90420904712E02398C3
:104D200000F58050D0F810050590239800F58050CC
:104D3000D0F810050068406DAFF2E0310490DDE975
:104D400004209047002025B000BD1298007800286C
:104D5000B0D1129801780DAA0C9811541298401CE9
:104D600012902022239800F29760129907F05CFDC0
:104D7000E4E01298401C1290DDE91110401A40281E
:104D800019DD40F213105A4BAFF20C425949009012
:104D9000164808F0EBFC06900698401C50B10698A7
:104DA000B0F5806F06DA239800F58050D0F8100532
:104DB0000590A1E0ADE0C1E025732025732C6C695E
:104DC0006E652025643A20444A49474F206E6F742F
:104DD00020636F6E6E656374656420746F20746801
:104DE0006520696E7465726E65740A00FC2F002080
:104DF000C1F70008480E010825732025732C6C6943
:104E00006E652025643A2057726F6E672053444BBD
:104E1000207065726D697373696F6E0A000000001F
:104E200025732025732C6C696E652025643A205308
:104E3000444B2076657273696F6E20646964206EDE
:104E40006F74206D617463680A000000257320256B
:104E5000732C6C696E652025643A205768696C650F
:104E60002063616C6C696E67207468697320667575
:104E70006E6374696F6E000025732025732C6C6956
:104E80006E652025643A2041434B20697320657884
:104E900063657074696F6E2C2073657373696F6ED0
:104EA0002069642025642C73657175656E636520C7
:104EB00025640A008CF7000825732025732C6C6983
:104EC0006E652025643A20506C65617365206361CE
:104ED0006C6C2067657444726F6E65566572736999
:104EE0006F6E2066697273742E0A0000D004002071
:104EF000ABF70008EC0E0108239800F58050D0F8BD
:104F000010050068406D00210490DDE90420904701
:104F100012E0239800F58050D0F8100505902398F2
:104F200000F58050D0F810050068406DAFF2D45104
:104F30000490DDE904209047002004E712980078EF
:104F400020287FF416AF1298401C129041E012986E
:104F5000401C1290DDE91110401A402839DD4FF451
:104F60009070FE4BAFF2E852FD490090FD4808F00A
:104F7000FDFB06900698401CB0B10698B0F5806F16
:104F800012DA239800F58050D0F810050590239888
:104F900000F58050D0F810050068406D00210490A5
:104FA000DDE90420904712E0239800F58050D0F806
:104FB00010050590239800F58050D0F81005006882
:104FC000406DAFF268610490DDE904209047002055
:104FD000B9E6129800782028B9D11298401C129096
:104FE00000200B904BE012980278239800F2876023
:104FF0000B9942541298401C12900B98401C0B9035
:10500000DDE91110401A402839DD40F23110D34B50
:10501000AFF29462D2490090D24808F0A7FB069004
:105020000698401CB0B10698B0F5806F12DA23984C
:1050300000F58050D0F810050590239800F58050B9
:10504000D0F810050068406D00210490DDE90420CF
:10505000904712E0239800F58050D0F81005059095
:10506000239800F58050D0F810050068406DAFF22D
:1050700014710490DDE904209047002063E6129843
:1050800000782D28AFD10022239800F287600B9979
:1050900042541298401C129000200A9009900890E7
:1050A000079049E01298007830380A220A9902FBEA
:1050B00001000A901298401C1290DDE91110401A6C
:1050C000402839DD40F24510A44BAFF24C72A449A0
:1050D0000090A44808F04AFB06900698401CB0B126
:1050E0000698B0F5806F12DA239800F58050D0F85A
:1050F00010050590239800F58050D0F81005006841
:10510000406D00210490DDE90420904712E02398CF
:1051100000F58050D0F810050590239800F58050D8
:10512000D0F810050068406DAFF2D0710490DDE951
:1051300004209047002006E6129800782E28B1D16E
:105140001298401C129049E01298007830380A22D8
:10515000099902FB010009901298401C1290DDE9A8
:105160001110401A402839DD4FF4A9707B4BAFF283
:10517000F0727B4900907B4808F0F8FA0690069898
:10518000401CB0B10698B0F5806F12DA239800F594
:105190008050D0F810050590239800F58050D0F885
:1051A00010050068406D00210490DDE9042090475F
:1051B00012E0239800F58050D0F810050590239850
:1051C00000F58050D0F810050068406DAFF674010E
:1051D0000490DDE9042090470020B4E5129800789F
:1051E0002E28B1D11298401C129049E012980078F4
:1051F00030380A22089902FB010008901298401CDE
:105200001290DDE91110401A402839DD40F25F109C
:10521000524BAFF6940252490090524808F0A6FA59
:1052200006900698401CB0B10698B0F5806F12DA6F
:10523000239800F58050D0F810050590239800F5CC
:105240008050D0F810050068406D00210490DDE921
:105250000420904712E0239800F58050D0F8100504
:105260000590239800F58050D0F810050068406D37
:10527000AFF618110490DDE904209047002062E5A4
:10528000129800782E28B1D11298401C129049E053
:105290001298007830380A22079902FB0100079023
:1052A0001298401C1290DDE91110401A402839DD97
:1052B0004FF4B670294BAFF63812294900902948AF
:1052C00008F054FA06900698401CB0B10698B0F564
:1052D000806F12DA239800F58050D0F81005059001
:1052E000239800F58050D0F810050068406D00212B
:1052F0000490DDE90420904712E0239800F58050E7
:10530000D0F810050590239800F58050D0F81005CE
:105310000068406DAFF6BC110490DDE904209047B1
:10532000002010E5129800780028B1D14FF07F419D
:105330000A9801EA00604FF47F02099902EA0141EC
:1053400008431212089902EA012108430799C9B2D9
:1053500001432398C0F8931606E00000ABF700085D
:10536000EC0E0108FC2F0020FEA1239800F28760BC
:1053700007F093FAD0B9089800EB8000400008903D
:105380004FF07F410A9801EA00604FF47F020999CB
:1053900002EA014108431212089902EA0121084376
:1053A0000799C9B201432398C0F893162398D0F8FF
:1053B0009306EE4988421AD1089800EB800040001D
:1053C00008904FF07F410A9801EA00604FF47F0295
:1053D000099902EA014108431212089902EA0121DF
:1053E00008430799C9B201432398C0F8931623983C
:1053F000D0F89306DE4988426DD29DF834009DF8BE
:10540000351000EB01209DF8361000EB01409DF8AF
:10541000371000EB01612398C0F873160EA80690B0
:10542000002005904BE006980278239800F27761FF
:1054300005980A540598401C05900698401C069053
:105440000EA90698401A0C2839DD40F29510C94B78
:10545000AFF6D422C8A10090D24808F087F9049092
:105460000498401CB0B10498B0F5806F12DA23980C
:1054700000F58050D0F810050390239800F5805077
:10548000D0F810050068406D00210290DDE902208F
:10549000904712E0239800F58050D0F81005039053
:1054A000239800F58050D0F810050068406DAFF6E5
:1054B00054310290DDE902209047002043E4069831
:1054C00000780028AFD106980278239800F2776020
:1054D0000599425460E000212398C0F873160DA886
:1054E0000690002005904BE006980278239800F281
:1054F0007760059942540598401C05900698401C19
:1055000006900DA90698401A102839DD40F2A9101E
:10551000984BAFF6943298A10090A24808F026F973
:1055200004900498401CB0B10498B0F5806F12DA72
:10553000239800F58050D0F810050390239800F5CB
:105540008050D0F810050068406D00210290DDE920
:105550000220904712E0239800F58050D0F8100503
:105560000390239800F58050D0F810050068406D36
:10557000AFF618410290DDE9022090470020DCE4FC
:10558000069800780028AFD106980278239800F298
:1055900077600599425400BF2398D0F8930682495A
:1055A00088423CD9239800F2776040F2B511714BE4
:1055B000AFF68C42CDE900107CA17A4808F0D6F80D
:1055C00006900698401CB0B10698B0F5806F12DACC
:1055D000239800F58050D0F810050590239800F529
:1055E0008050D0F810050068406D00210490DDE97E
:1055F0000420904712E0239800F58050D0F8100561
:105600000590239800F58050D0F810050068406D93
:10561000AFF6B8410490DDE90420904700BF23981D
:1056200000F287604FF4DC71524BAFF60452CDE9C3
:10563000001069A15B4808F099F806900698401C94
:10564000B0B10698B0F5806F12DA239800F580505B
:10565000D0F810050590239800F58050D0F810057B
:105660000068406D00210490DDE90420904712E0BD
:10567000239800F58050D0F810050590239800F588
:105680008050D0F810050068406DAFF6305104909E
:10569000DDE90420904707A80BC80A9ACDE9012349
:1056A000CDE903104FF4DD70324BAFF6845253A1B5
:1056B00000903C4808F05AF806900698401CB0B19B
:1056C0000698B0F5806F12DA239800F58050D0F874
:1056D00010050590239800F58050D0F8100500685B
:1056E000406D00210490DDE90420904712E02398EA
:1056F00000F58050D0F810050590239800F58050F3
:10570000D0F810050068406DAFF6B0510490DDE9A7
:10571000042090472398D0F893061549884220D258
:105720002398D0F873064FF4DF71124BAFF608627E
:10573000CDE900103BA11B4808F018F80690069828
:10574000401C68B10698B0F5806F09DA239800F51F
:105750008050D0F810050590239800F5805073E034
:105760007CE08FE04D31303000000000000A020381
:1057700000000203ABF7000825732025732C6C6929
:105780006E652025643A2044726F6E65204944207E
:10579000776173206E6F74206F627461696E6564E7
:1057A0002E000000FC2F002000000103257320259F
:1057B000732C6C696E652025643A204465766963B4
:1057C000652053657269616C204E6F2E203D202547
:1057D0002E3136730A00000025732025732C6C6966
:1057E0006E652025643A2048617264776172652095
:1057F0003D20252E3132730A00000000257320253C
:10580000732C6C696E652025643A204669726D7749
:10581000617265203D2025642E25642E25642E2589
:10582000640A000025732025732C6C696E652025A1
:10583000643A2056657273696F6E20435243203D6F
:1058400020307825580A0000D0F810050068406D17
:1058500000210490DDE90420904712E0239800F530
:105860008050D0F810050590239800F58050D0F8AE
:1058700010050068406DAFF61C710490DDE904204E
:10588000904700BF012056E42DE9F04389B0064659
:105890000C4615464FF6FF70A4F871060021C4F8B7
:1058A0007316C4F8931684F8971664274FF003080C
:1058B00000200890CDE9048003970690012008A9F4
:1058C00000221346CDE90021029002212046FEF776
:1058D00001FF41F21052105912591268D16A8847DB
:1058E00041F210510859095909688A6B29469047B5
:1058F00041F21052105912591268116B884704F185
:10590000700949462046FFF7B3F930B90021C4F8C1
:105910007316C4F8931684F89716462204F2716140
:10592000304606F081FF09B0BDE8F08370B592B053
:1059300004460D461646D4F8930620B901222146A6
:105940006846FFF7A1FFD4F89306A86030222946E5
:1059500004F2B76006F068FF0221C4F8BB1600200D
:1059600004E0302204F2C3610A54401C2028F8DB12
:10597000002003224FF47A73CDE904202C210393F5
:10598000069004F2B76001220023CDE900200291C5
:105990001A4602212046FEF79DFE41F21052105990
:1059A00012591268D16A884741F2105108590959B1
:1059B00009688A6B3146904741F2105210591259CA
:1059C0001268116B8847B4F870006060606838B97D
:1059D000D4F8E30620B1D4F8E316204604F09EFC88
:1059E000A08880B212B070BDF0B589B004460D46F3
:1059F00017464FF6FF700890012007902868C0F303
:105A00000920103802280AD82868C0F30920A0F11C
:105A1000100205F10C0108A806F006FF29E028890C
:105A200080B22968C1F3046140F20452FE4BCDE913
:105A300000210290FD4AAFF6C031FD4807F096FE06
:105A40000646701C58B1B6F5806F08DA41F2105165
:105A50000859095909684A6D0021904708E041F248
:105A600010510859095909684A6DF049243990477D
:105A700000BFBDF82000032870D005DC48B1012824
:105A800053D002286BD176E0042869D0C928F9D117
:105A900013E1D4F89306E749884222D240F20E502F
:105AA000E14BE24A583AE4A10090E14807F05EFE7B
:105AB0000646701C58B1B6F5806F08DA41F21051F5
:105AC0000859095909684A6D0021904708E041F2D8
:105AD00010510859095909684A6DD4492439904729
