:020000040800F2
:1000000040770020E53F0008ED3F0008EF3F000883
:10001000F13F0008F33F0008F53F00080000000032
:10002000000000000000000000000000F73F000892
:10003000F93F000800000000FB3F00083F190008DE
:10004000FF3F0008FF3F0008FF3F0008FF3F000898
:10005000FF3F0008FF3F0008FF3F0008FF3F000888
:10006000FF3F0008FF3F0008FF3F0008FF3F000878
:10007000FF3F0008FF3F0008FF3F0008FF3F000868
:10008000FF3F0008FF3F0008FF3F0008FF3F000858
:10009000FF3F0008FF3F0008FF3F0008FF3F000848
:1000A000FF3F000861190008FF3F0008FF3F0008FC
:1000B0009D190008FF3F0008FF3F0008FF3F0008B0
:1000C000FF3F0008FF3F0008FF3F0008FF3F000818
:1000D000FF3F0008FF3F0008A30B0008AF17000810
:1000E000FF3F0008FF3F0008FF3F0008FF3F0008F8
:1000F000FF3F0008FF3F0008FF3F0008FF3F0008E8
:10010000FF3F0008FF3F0008FF3F0008FF3F0008D7
:10011000FF3F0008FF3F0008FF3F0008FF3F0008C7
:10012000FF3F0008FF3F0008FF3F0008FF3F0008B7
:10013000FF3F0008FF3F0008FF3F0008FF3F0008A7
:10014000FF3F0008FF3F0008FF3F0008FF3F000897
:10015000FF3F0008FF3F0008FF3F0008FF3F000887
:10016000FF3F0008FF3F0008FF3F0008FF3F000877
:10017000FF3F0008FF3F0008FF3F0008FF3F000867
:10018000FF3F0008FF3F0008DFF810D00CF0A8FD8B
:100190000CF0FEF9004800479D030008407700205E
:1001A00070B504460D4600BF4021054803F0B2FD7E
:1001B0000028F9D0E1B2024803F0FCFC204670BDF3
:1001C0000044004030B503460C464FF0FF3200219A
:1001D00008E0585C5040C0B2E24D55F8200080EA7B
:1001E0001222491CA142F4D3D04330BD2DE9F04F77
:1001F000C9B04FF0FE094FF0A00A4FF0A10BA220AA
:100200004890A3204790A4204690A5204590A62082
:100210004490FD200290D448007848457ED1D248D1
:1002200045782946D1A00DF03BF8CF488478544555
:1002300003D1D4A00DF034F82BE05C4503D1D6A057
:100240000DF02EF825E04898844203D1D9A00DF096
:1002500027F81EE04798844203D1DEA00DF020F875
:1002600017E04698844203D1E1A00DF019F810E0A0
:100270004598844203D1E4A00DF012F809E04498B7
:10028000844203D1E6A00DF00BF802E0EAA00DF0E5
:1002900007F8B54887791FB9EBA00DF001F803E026
:1002A0003946F0A00CF0FCFFF3A00CF0F9FF00269B
:1002B0000BE0F01DAC49085C04A98855F01DAA4A62
:1002C000115CF2A00CF0ECFF761CAE42F1DBB1A0A9
:1002D0000CF0E6FFEFA00CF0E3FF00260DE0E81DB8
:1002E0003044A149085C03A98855E81D30449E4A62
:1002F000115CE6A00CF0D4FF761C042EEFDBA5A069
:100300000CF0CEFF9DF80C0000069DF80D1040EAA1
:1003100001409DF80E1040EA012000E034E09DF815
:100320000F1040EA01084146DFA00CF0B9FF04A815
:100330000CF056F80146019004A8FFF743FF06466B
:100340003146E0A00CF0ACFF04A80CF049F80646DA
:10035000314604A8FFF736FF404503D1E1A00CF079
:100360009FFF02E0EDA00CF09BFF7F4905F10B0021
:10037000095C0298814203D1F7A00CF091FF06E0DE
:10038000FAA00CF08DFF02E0FDA00CF089FF76488A
:100390000EF036FD002049B0BDE8F08F0EB5A82064
:1003A0000BF060FC0BF072FE0BF047FDFE480823DB
:1003B00080220021009008460BF02DFE4FF4A06033
:1003C00001F02AFB002003230622052100900BF0F8
:1003D0008BFB0024002600BF00BF4FF0FD0801F09A
:1003E00011FB1E2001F09CFAF0A00CF059FFF5A0C3
:1003F0000CF056FF40F6B83001F092FA0BF01DFDFC
:100400004FF001099BE2B9F1000F2AD04FF000092B
:1004100000231A46F249F348006805F0E4FC322054
:1004200001F07EFAF04AF149EE48006806F025F93D
:1004300000221146EB48006805F0AFFE4FF47A70D9
:1004400001F06EFA00F0C6FA322001F069FAE848CD
:1004500000680068C168E648006888474FF4FA7190
:100460004718E34800680068C168E14800688847A9
:10047000C01B71F1000114D3DD4800680068C16839
:10048000DB48006888474FF4FA714718D949D548C6
:10049000006800F0BDFDD74AD2480168D64800F098
:1004A000B3FBD048006809F079FBD4480068002805
:1004B00056D0002003461522D1490090C948006853
:1004C00005F065FB0BF0B9FCCEA2022100200BF079
:1004D00056FD102004230090CB480221026818200A
:1004E0000BF00BFDC9A2022140200BF048FD1020AB
:1004F00004230090C7480221026860200BF0FDFC35
:10050000C5A2042100200BF03AFD10200423009026
:10051000C2481946026818200BF0EFFCC0A2042163
:1005200040200BF02CFD102004230090BE481946FB
:10053000026860200BF0E1FCBCA2062100200BF059
:100540001EFD102003230090BA48062102682020D7
:100550000BF0D3FCB8A2062140200BF010FD6FE198
:100560007AE100002CEF000820280020446174612B
:10057000206C656E67746828737472293A25640A62
:100580000000000053746174653A486F73742073FF
:10059000746172740A00000053746174653A4170AA
:1005A000706C69636174696F6E20636F6E74726FD3
:1005B0006C0A000053746174653A50657269706822
:1005C0006572616C20666F7277617264696E670A2A
:1005D0000000000053746174653A50657269706878
:1005E0006572616C2073686F77696E670A0000003E
:1005F00053746174653A52657475726E20726567E2
:1006000069737465720A000053746174653A5265C7
:100610007475726E20636F6E74726F6C0A000000E6
:1006200053746174653A5472616E736D69742063BA
:100630006F6E74726F6C0A0053746174652045723A
:10064000726F72210A0000005065726970686572ED
:10065000616C2049443A486F73742073656E640A74
:10066000000000005065726970686572616C204915
:10067000443A253032580A004D657373616765202E
:10068000636F6E74656E743A000000002530325856
:100690002000000050726F746F636F6C20435243F0
:1006A00020636865636B3A004D657373616765200D
:1006B000636F6E74656E742043524330313A25582F
:1006C0000A0000004D65737361676520636F6E7487
:1006D000656E742043524320636865636B3A255806
:1006E0000A000000436865636B20746865206D65CF
:1006F000737361676520636F6E74656E742C20740C
:1007000068652070726F746F636F6C20697320630B
:100710006F7272656374210A000000004D65737387
:1007200061676520636F6E74656E742076616C69B5
:10073000646174696F6E206661696C65642C2070F9
:100740006C65617365207265202D207472616E7313
:10075000666572210A000000456E64206F66207095
:10076000726F746F636F6C210A00000050726F74B7
:100770006F636F6C206572726F72210A0000000057
:100780004572726F722021204E6F74207374616EF7
:1007900064617264204E796D74682070726F746F3A
:1007A000636F6C210A000000000000200D41697297
:1007B0004477696E67204E796D70682076312E31EE
:1007C000200D0A00687474703A2F2F7777772E61A6
:1007D00069726477696E672E636F6D200D0A000081
:1007E0007105002084040020FC2A00208F140008DA
:1007F0008004002088040020D02A0020D404002097
:100800001F290020434F3A00D8040020504D3235B4
:100810003A000000E80400204F333A00E0040020D2
:10082000504D31303A000000EC040020534F323A72
:1008300000000000DC0400204E4F323A00000000AF
:100840001020052300904E480621026858200BF026
:1008500054FB00204B4908604B48006890B14BA204
:10086000002102200BF08BFB4AA2022108460BF06C
:1008700086FB4CA2042102200BF081FB00204249A0
:1008800008603CE00E22002108460BF093FB0F228B
:10089000002110200BF08EFB1022002120200BF0F5
:1008A00089FB1122002130200BF084FB1222002151
:1008B00040200BF07FFBAFF2B402022100200BF0CE
:1008C0005EFBAFF2B802022140200BF058FBAFF202
:1008D000B802042100200BF052FBAFF2BC0204214D
:1008E00040200BF04CFBAFF2BC02062100200BF0C5
:1008F00046FBAFF2BC02062140200BF040FB00BFDC
:1009000001A80BF08DF90546CDB1002415E001A832
:10091000005D2849885501A8005D404509D1701C3B
:10092000C6B20026AFF24C100CF0BAFCFFF75EFC2A
:10093000E6E7701CC6B2601CC4B2AC42E7DB62E5FD
:1009400038B504200CF098FC04461B49016000BF38
:100950001A4901601A4804600020034602460090CC
:1009600017480168174803F0C9FB17480168174882
:1009700007F0ACF91448016815480AF0E1FE38BDEB
:10098000E4040020D4040020D00400204572726FDB
:10099000723A000047657444726F6E6556657273F3
:1009A000696F6E00506C656173652052654C6F61B4
:1009B0006400000020280020900901083009010887
:1009C00080040020B012002084040020880400204D
:1009D000DC27002000B58DB040F2D24001900648DF
:1009E000039006480C9000231A4601A904480068A9
:1009F00003F086FE0DB000BD000A0103F0040020E4
:100A00008404002010B50022012111480AF0A1FE43
:100A10004022104910480BF0B1FC10BD10B5002267
:100A200001210B480AF095FE4FF480600A490860E6
:100A300048608860C860086148618861C861086270
:100A400048628862C862086348638863C86310BDEF
:100A5000DC270020310500209004002000B52DED9A
:100A6000068BEDB0B0EE409AF0EE609AB0EE418A9F
:100A7000F0EE618A324A19EE100A19EE901A1061EE
:100A8000516130480168684605F0B4FDCC226946E2
:100A90003AA80BF073FC1C224AA933A80BF06EFC99
:100AA0002748DDE933120160426026480168684644
:100AB00005F0A0FDCC2269463AA80BF05FFC1C2291
:100AC0004AA933A80BF05AFC1D48DDE935128160B4
:100AD000C2601822014667A80BF050FC9DED6B2BFD
:100AE0009DED691B9DED670B174808F02EFFB0EEDA
:100AF000480A154808F049FF18EE900A0BF07EFEF0
:100B000041EC1A0BB0EE4A0AF0EE6A0A0E4808F001
:100B100033FF002211460C4808F029FB6DB0BDECF4
:100B2000068B00BD10B500221146074808F093FB64
:100B300010BD10B503480168034808F070FA10BDF5
:100B4000842A0020840400204C2A002000F07F0228
:100B500000EE102AB8EEC00AF0EE400A00EE101ABD
:100B6000B8EE400AB0EE401A00F0800262B1DFED4C
:100B7000F21AB0EE410A00EEA10AF1EE401A9FED22
:100B8000EF2A81EE820A7047DFEDEB1AB0EE410AE0
:100B900000EEA10A9FEDE92AC0EE021AB0EE610A4A
:100BA000F1E710B52021E64803F0B4F801282AD176
:100BB000E34803F003F8C4B2E248406A48B9FA2CAB
:100BC00020D1E048416A001D44540120DD494862BB
:100BD00018E0FE2C0DD1DB48416A001D4454001F73
:100BE000406A401CD74988620020486201200860A2
:100BF00008E0D448416A001D4454001F406A401C6C
:100C0000D049486200BF10BDF0B52DED028BE9B0B0
:100C100004460D4616462068012802D100202060B7
:100C200003E069B0BDEC028BF0BD2079FA2802D157
:100C30006079FB2800D0F4E7A0790A287DD2DFE8AC
:100C400000F0050B0E1A26DFF1F0EFEE0022114640
:100C5000284605F0A2FA64E1FFF7BCFE61E1E07905
:100C600008B1012000E00020014600231A46284672
:100C700004F09BFE55E1E07908B1012000E000207E
:100C8000014600231A46304607F0E1F949E1E079D0
:100C9000012871D1207AAC490870A17A607AFFF7F7
:100CA00055FF10EE100AA849C1F80100217BE07A37
:100CB000FFF74CFF10EE100AA349C1F80500A17B15
:100CC000607BFFF743FF10EE100A9F49C1F809004F
:100CD000217CE07BFFF73AFF10EE100A9A49C1F839
:100CE0000D00304607F0D8FA0121880702F02CF9F0
:100CF000A17A607AFFF72AFF10EE107A38460BF0DF
:100D00007DFD41EC180B53EC182B90A00CF0C8FAA9
:100D1000217BE07AFFF71AFF10EE107A38460BF0CD
:100D20006DFD41EC180B53EC182B8CA00CF0B8FAAD
:100D3000A17B607BFFF70AFF00E0F1E010EE107A84
:100D400038460BF05BFD41EC180B53EC182B87A0D9
:100D50000CF0A6FA217CE07BFFF7F8FE10EE107A8B
:100D600038460BF04BFD41EC180B53EC182B82A0CE
:100D70000CF096FA43E0FFE7E07902283FD1A17A30
:100D8000607AFFF7E3FE10EE107A38460BF036FD7E
:100D900041EC180B53EC182B6CA00CF081FA217B62
:100DA000E07AFFF7D3FE10EE107A38460BF026FDFE
:100DB00041EC180B53EC182B68A00CF071FAA17BD6
:100DC000607BFFF7C3FE10EE107A38460BF016FD7D
:100DD00041EC180B53EC182B64A00CF061FA217C49
:100DE000E07BFFF7B3FE10EE107A38460BF006FDFD
:100DF00041EC180B53EC182B5FA00CF051FA90E06B
:100E0000E079012804D002280DD0032819D111E07F
:100E100000231A460121304606F0C1FF11E074E0BC
:100E20004DE02DE00FE000231A460421304606F085
:100E3000B6FF06E000231A460621304606F0AFFF53
:100E400000BF00BF6DE0E07930B9FFF7E7FD00219A
:100E50004C4802F079F812E0E079022806D1FFF759
:100E6000D1FD0121474802F06FF808E0E079012840
:100E700005D1FFF7D3FD0121424802F065F850E0AB
:100E8000E079C8B9207A0BF0ACFC41EC180BA07AE1
:100E900000EE100AB8EE400AF0EE401A607A00EE5A
:100EA000100AB8EE400AB0EE401AB0EE480AF0EE72
:100EB000680AFFF7D3FD01E0FFF734FE31E0294671
:100EC000684605F097FBCC22694636A80BF056FA27
:100ED000DDF8DA003390DDF8DE003490BDF8E20092
:100EE000ADF8D40028A033990CF0DAF9294603A80C
:100EF00005F080FBCC2203A936A80BF03FFA9DF841
:100F00009D1126A00CF0CCF90BE0E079012802D16C
:100F100000F01DFB03E0E07908B900F042FB00E0BF
:100F200000BF00BF00BF7CE60648002101604162AF
:100F3000816200BF70470000000080430000C8428B
:100F400000440040D02A0020C8270020726F6C6C3B
:100F50005F6F725F78203D25660A000070697463D8
:100F6000685F6F725F79203D25660A007468725F62
:100F70007A203D25660A0000796177203D25660AC2
:100F80000A0000000000014054696D655374616DF2
:100F9000702069732025640D0A000000426174749A
:100FA0006572792063617061636974792072656D1F
:100FB00061696E732025642070657263656E740DBF
:100FC0000A0000002DE9F04107460C46164625466A
:100FD00014B90020BDE8F0810BE000BF40210A48B1
:100FE00002F098FE0028F9D015F8011B064802F01F
:100FF000E1FD3000A6F10106EFD10120EAE702464B
:101000000248006800217047004800408405002025
:101010007CB504460D4600BF94F85806E0B10020A8
:1010200084F8580600BF00231A460121204604F028
:10103000BCFC642000F074FC0220ADF804002046E3
:1010400005F00BF9ADF8060000200346042201A9C3
:101050000090204604F09BFD00BF94F85906E0B1D3
:10106000002084F8590600BF00231A46194620467E
:1010700004F09BFC642000F053FC0320ADF8040056
:10108000204605F0EAF8ADF80600002003460422E9
:1010900001A90090204604F07AFD00BF94F85A069A
:1010A000C0B1002084F85A0600BFFFF793FC64200B
:1010B00000F036FC0420ADF80400204605F0CDF821
:1010C000ADF8060000200346042201A90090204646
:1010D00004F05DFD00BF94F85B06E0B1002084F8E9
:1010E0005B0600BF00231A460121284606F0AFFF29
:1010F000642000F015FC0520ADF80400204605F042
:10110000ACF8ADF8060000200346042201A90090C7
:10111000204604F03CFD00BF94F85C06E0B10020DE
:1011200084F85C0600BF00231A461946284606F0DC
:101130008EFF642000F0F4FB0620ADF8040020468A
:1011400005F08BF8ADF8060000200346042201A943
:101150000090204604F01BFD00BF94F85D06E0B14E
:10116000002084F85D0600BF00231A4604212846AB
:1011700006F015FE642000F0D3FB0720ADF8040054
:10118000204605F06AF8ADF8060000200346042268
:1011900001A90090204604F0FAFC00BF94F85E0616
:1011A000E0B1002084F85E0600BF00231A46062145
:1011B000284606F0F4FD642000F0B2FB0820ADF8EC
:1011C0000400204605F049F8ADF80600002003466B
:1011D000042201A90090204604F0D9FC00BF94F835
:1011E0005F06E0B1002084F85F0600BF00231A46C6
:1011F0000121284606F0D3FD642000F091FB092070
:10120000ADF80400204605F028F8ADF806000020EF
:101210000346042201A90090204604F0B8FC00BF58
:1012200094F86806E8B1002084F8680600BF422000
:10123000ADF804000B48C06B012805D100F0B1F9EE
:1012400080B2ADF8060004E000F081F980B2ADF89C
:10125000060000200346042201A90090204604F065
:1012600096FC7CBDFC2A002070B52DED068B044653
:101270000D46F0EE408AB0EE608AB0EE419AF0EE94
:10128000619A38EEC90AB0EE40AA38EE690AF0EE6B
:1012900040AA9FEDC80A2AEE800A84ED000AB0EE4B
:1012A000480A0AF0F5FFDFEDC30A6AEE200A20EED5
:1012B000200A85ED000ABDEC068B70BD0FB400B5A9
:1012C0002DED048B83B068469FEDBB0A80ED000ACC
:1012D0009FEDB90A80ED010A9FEDB70A80ED020A81
:1012E00000BF9DED0F1BB0EE410AF0EE610A51EC1C
:1012F000100B0BF0C7FA08EE100A9DED111BB0EEB3
:10130000410AF0EE610A51EC100B0BF0BBFA08EE4B
:10131000900A9DED081BB0EE410AF0EE610A51EC17
:10132000100B0BF0AFFA09EE100A9DED0A1BB0EEA0
:10133000410AF0EE610A51EC100B0BF0A3FA09EE32
:10134000900AF0EE481AB0EE681AF0EE490AB0EED4
:10135000690A01A96846FFF787FF9DED0C0A8DED2C
:10136000020A9DED000ADDED010A9DED021A03B0AF
:10137000BDEC048B5DF814FB00B52DED048B8DB036
:101380008E4890ED050ADFED8E0AB4EEE00AF1EE2C
:1013900010FA0FD2DFED881AB3EE091ADFED860AD4
:1013A0009FED850A9121874806F0BBFF0DB0BDEC8B
:1013B000048B00BD814890ED0E0ADFED830A30EE0C
:1013C000200A80ED0E0AD0ED0E0AB0EE001A60EE93
:1013D000810AB0EE600A0AF097FFF3EE090A20EEE8
:1013E000200AB0EE408A7548D0ED0E0AB0EE600AD1
:1013F0000AF04EFF20EE080AF0EE408A6F48D0ED6A
:101400000E0AB0EE600A0AF07FFF20EE080AB0EE86
:10141000409A19226949193103A80AF0AFFF09223D
:101420006649103168460AF0A9FF64480FC8FFF703
:1014300045FF8DED0A0ACDED0B0A8DED0C1A9DEDE1
:101440000B1A39EE411AF0EE410A9DED0A1A38EEF8
:10145000C11AB0EE410ADFED581AB3EE091A912114
:10146000584806F05EFF554890ED0E0ADFED570A2A
:10147000B4EEE00AF1EE10FA06DD9FED4F0A80EDC2
:101480000E0A00204D49C86300BF00BF8EE72DE95A
:10149000F043E7B007468846914608F10C054C46F4
:1014A0002878022850D1687800284DD1AD1C2E46EE
:1014B000307800F02000C8B1394601A805F09AF84C
:1014C000CC2201A934A80AF059FF192244A92046C8
:1014D0000AF054FFE06B012808D194F83300032888
:1014E00004D1606B012801D1FFF746FF308800F47A
:1014F0000070002828D0323460782070384604F01C
:1015000097FE607014F8320901281DD194F8330059
:10151000032819D1394601A805F06CF8CC2201A99D
:1015200034A80AF02BFF192244A904F119000AF08B
:1015300025FF606B18B926A00BF0B2FE02E02AA0CE
:101540000BF0AEFE0120606367B0BDE8F08310B51C
:101550001A48406B01280DD1184890ED050AF6EEA7
:10156000000AB4EEE00AF1EE10FA03D390F833006B
:1015700003280CD09FED100A104880ED0E0A0020C1
:101580000E49C8631FA00BF08BFE012010BD9FED1C
:101590000A0A0A4880ED0E0A01200849C8630020A3
:1015A000F4E79FED050A054880ED0E0A0020034987
:1015B000C863704732A5C24A00000000FC2A002020
:1015C0000000C441880400206F12033BC3F5C840EB
:1015D000486F6D65204C6F636174696F6E20536551
:1015E00074210D0A00000000486F6D65204C6F6388
:1015F0006174696F6E2055706461746564210D0AB1
:1016000000000000506C656173652074616B65209B
:101610006F6666206669727374210D0A000000000F
:101620001CB50121084601F01AFA0C200090022096
:101630008DF804008DF8050000208DF806000120CB
:101640008DF807006946624800F0BCFF07220221BE
:101650005F4801F042F8072203215D4801F03DF8A0
:101660001CBD1CB50121022001F0F9F94FF44060C6
:10167000009002208DF804008DF8050000208DF800
:10168000060001208DF807006946524800F09AFFD5
:1016900007220A214F4801F020F807220B214D486C
:1016A00001F01BF81CBD1FB5FFF7BAFF012148046C
:1016B00001F008FA4FF4E13000900020ADF804008A
:1016C000ADF80600ADF80800ADF80C000C20ADF840
:1016D0000A006946404802F0BAF9012240F2255159
:1016E0003D4802F0F2FA01213B4802F038FA00BF0F
:1016F0008021394802F00EFB0128F9D11FBD1FB52A
:10170000FFF7AFFF0121880401F0DCF94FF46130ED
:1017100000900020ADF80400ADF80600ADF8080018
:10172000ADF80C000C20ADF80A0069462B4802F019
:101730008EF9012240F22551284802F0C6FA012113
:10174000264802F00CFA00BF8021244802F0E2FA99
:101750000128F9D11FBD1CB54FF4A06000F05CF961
:1017600004208DF8050003208DF8060027208DF851
:10177000040001208DF8070001A800F052F90320B1
:101780008DF8010002208DF8020026208DF800005F
:1017900001208DF80300684600F043F91CBD10B528
:1017A000FFF781FFFFF7ABFFFFF7D5FF10BD10B5C7
:1017B00020210A4802F0AEFA012808D1074802F0B9
:1017C000FDF9C4B221460648006805F0F4FF10BDDB
:1017D0000000024000040240004400400048004075
:1017E000840400201FB50121084601F07CF9012185
:1017F000084601F078F90020ADF80C00ADF80600BD
:10180000C720029042F2CF00ADF8040000208DF80E
:101810000E0001A9704801F00EFB19208DF80000A0
:1018200003208DF801008DF8020001208DF80300DF
:10183000684600F0F6F80121674801F0B1FF012287
:101840001146654801F098FF0021634801F07CFBD8
:101850001FBD1FB50121084601F034F901210846DA
:1018600001F030F90020ADF80C00ADF80600C720FB
:101870000290272002904AF20F40ADF8040001A91F
:101880004FF0804001F0D7FA1C208DF800000220B4
:101890008DF8010003208DF8020001208DF803006F
:1018A000684600F0BEF80121880701F079FF0122A7
:1018B0001146900701F060FF00214FF0804001F0D9
:1018C00043FB1FBD30B5454800684FF47A72B0FB4A
:1018D000F2F1B1F1807F01D301201DE021F07F40C2
:1018E000401E4FF0E022506150170022002807DA16
:1018F00013071D0E3A4B00F00F04241F1D5503E083
:1019000013071C0E374B1C5400BF00204FF0E02281
:10191000906107201061002008B100BFFEE730BDD4
:10192000002106E047F2305100BF0A00A1F1010199
:10193000FBD10200A0F1010398B2F3D170472A480D
:1019400000222A4B0168591A72EB020002DA0020C9
:101950002549086024480068401C234908607047F6
:1019600000B59DB001211C4801F01DFF01280FD1D9
:1019700034221F4968460AF001FD40221C490C39F7
:101980000DA80AF0FBFC1B480DA90EC909F00AFFBF
:101990000121114801F004FF1DB000BD10B5012167
:1019A000880701F000FF012811D11348807904282D
:1019B00008D11148C079012804D11049104806F017
:1019C0006BFC04E000214FF0804001F0BDFA0121E2
:1019D000880701F0E5FE10BD0000014098050020D9
:1019E00018ED00E000E400E084050020009C57FCB6
:1019F0009C040020DC270020D02A0020C8270020DB
:101A00008804002010B5FFF7CAFEFFF75BFFFFF761
:101A1000E9FEFFF71EFF10BD32490143324A116053
:101A2000704770B5002100230F22C4781CB32E4CE0
:101A3000246804F4E064C4F5E064C4F30721C1F150
:101A40000404E3B20A4144789C40E1B28478144033
:101A500021430C07210E254C05786155047804F0CC
:101A60001F050124AC4005786D11AD0005F1E0259E
:101A7000C5F8004109E0047804F01F050124AC40DA
:101A80001B4D0678761145F8264070BD194A0A406C
:101A90000243154B1B1F1A60704739B1124A121DC1
:101AA00012680243104B1B1D1A6006E00E4A121DFD
:101AB000126882430C4B1B1D1A607047042808D122
:101AC0004FF0E021096941F004014FF0E02211617B
:101AD00007E04FF0E021096921F004014FF0E02216
:101AE000116170470000FA050CED00E000E400E031
:101AF00080E100E080FFFF1F10B50446FE488442ED
:101B000009D10121480601F047F800214FF000708B
:101B100001F042F808E00121880601F03DF80021BB
:101B20004FF0806001F038F810BD30B5024600205B
:101B30000023146824F002041460146844F00104C3
:101B4000146000E05B1C546804F001041CB94FF6FB
:101B5000FF74A342F6D1546804F001040CB90020CC
:101B60006CE08C79012C04D1146844F0800414607A
:101B700003E0146824F080041460CC79012C04D1B3
:101B8000146844F04004146003E0146824F0400436
:101B900014600C7A012C04D1146844F02004146001
:101BA00003E0146824F0200414604C7A012C04D162
:101BB000146844F01004146003E0146824F0100466
:101BC00014608C7A012C04D1146844F00804146069
:101BD00003E0146824F008041460CC7A012C04D1CA
:101BE000146844F00404146003E0146824F004044E
:101BF00014608C78A407CD7844EA05640D7944EA32
:101C000005444D7944EA05540D886D1E2C43D4617A
:101C1000146824F001041460002300E05B1C546885
:101C200004F001041CB14FF6FF74A342F6D15468CE
:101C300004F001040CB1002000E0012030BD10B51B
:101C40000021837A012202FA03F1AC4A126842F0C1
:101C50000102AA4B1A60A94A1C3212688A43A74B98
:101C60001C331A60027BCAB9A44A0C3212688A4338
:101C7000A24B0C331A604288C38842EA03439F4A4E
:101C80004032847A42F834300288838842EA03433F
:101C90009A4A4032847A02EBC4025360027B012AE2
:101CA00019D1964A0C3212680A43944B0C331A60CD
:101CB0004288038842EA0343904A4032847A42F8D9
:101CC0003430C288838842EA03438C4A4032847AA3
:101CD00002EBC4025360C27A3AB9884A121D1268F4
:101CE0008A43864B1B1D1A6006E0844A121D126847
:101CF0000A43824B1B1D1A60028932B97F4A143293
:101D000012688A437D4B14331A600289012A06D176
:101D10007A4A143212680A43784B14331A60427BB1
:101D2000012A06D1754A1C3212680A43734B1C33D0
:101D30001A60724A126822F00102704B1A6010BDDC
:101D400000218171C171017241728172C172817011
:101D5000C17003210171022141710121018070478D
:101D60006649096841F00101644A11601146096839
:101D700043F60E729143614A11601146096841EAC7
:101D8000002111601146096821F0010111607047BE
:101D900021B1026842F48032026003E0026822F45A
:101DA000803202607047E1B1026842F08002026056
:101DB0004FF4C272125842F480734FF4C27213503F
:101DC0004FF4CA72125842F480734FF4CA7213501F
:101DD0004FF4D272125842F480734FF4D2721350FF
:101DE0001BE0026822F0800202604FF4C2721258B7
:101DF00022F480734FF4C27213504FF4CA72125817
:101E000022F480734FF4CA7213504FF4D2721258F6
:101E100022F480734FF4D2721350704710B502460B
:101E20000020936803F08063B3F1806F00D110E06D
:101E3000936803F00063B3F1006F01D1012008E063
:101E4000936803F08053B3F1805F01D1022000E07A
:101E50000420042879D002F5C07303EB00131B683B
:101E600003F0010402F5C07303EB00131C600B7A4E
:101E70007BB94B7A0C8843EA445302F5C07404EBF7
:101E800000142468234302F5C07404EB001423609B
:101E900010E00B7A4C6843EAC4034C7A234302F502
:101EA000C07404EB00142468234302F5C07404EBEF
:101EB000001423608B7A03F00F038B7202F5C0735A
:101EC00003EB00135B6823F00F0402F5C07303EB10
:101ED00000135C6002F5C07303EB00135B688C7A3F
:101EE000234302F5C07404EB001463608B7B1C0673
:101EF0004B7B44EA034403E000640040006600407A
:101F00000B7B44EA0323CC7A234302F5C07404EB31
:101F10000014A3608B7C1C064B7C44EA03440B7CBE
:101F200044EA0323CC7B234302F5C07404EB001482
:101F3000E36002F5C07303EB00131B6843F0010478
:101F400002F5C07303EB00131C6010BD10B5024610
:101F5000002321B1012907D002290FD109E090689F
:101F6000F94C00EA04030BE09068F84C00EA040323
:101F700006E09068F64C00EA040301E0002300BF8D
:101F800000BFF44C181BA34216D007DC83B16FF0DE
:101F90008060184470B1022818D111E0B0F5007FBC
:101FA00010D0ED4C204448B1B0F5003F0ED10BE00D
:101FB00002230DE000230BE0002309E0002307E0EB
:101FC000012305E0012303E0012301E0002300BF1A
:101FD00000BFD8B210BD21B1012907D002290FD10D
:101FE00009E0826842F0800282600AE0826842F47E
:101FF0000042826005E0826842F40002826000E0F4
:1020000000BF00BF704710B500F5D87303EB011394
:102010001B6803F004031372137A53B900F5D873E5
:1020200003EB01131B6840F2FF7404EA535313607F
:1020300009E000F5D87303EB01131B686FF06044EF
:1020400004EAD303536000F5D87303EB01131B6854
:1020500003F00203537200F5D87303EB01135B68BE
:1020600003F00F03937200F5D87303EB01135B6861
:102070001B0AD37400F5D87303EB01139B68D3726A
:1020800000F5D87303EB01139B681C0A147300F569
:10209000D87303EB01139B681C0C547300F5D873C1
:1020A00003EB01139B681B0E937300F5D87303EBCE
:1020B0000113DB68D37300F5D87303EB0113DB68FE
:1020C0001C0A147400F5D87303EB0113DB681C0CB5
:1020D000547400F5D87303EB0113DB681B0E937483
:1020E00021B9C36843F02003C36003E0036943F0F0
:1020F0002003036110BD21B9C26842F02002C26012
:1021000003E0026942F020020261704702460020AB
:1021100019B9D36803F0030006E0012903D113695C
:1021200003F0030000E00020704710B502460B46A4
:1021300000204FF6FF71BBB9146824F0020444F08C
:102140000104146000E0491E546804F00304012CEB
:1021500001D00029F7D1546804F00304012C01D008
:10216000002032E0012030E0012B13D1146824F06C
:102170000304146000E0491E546804F003040CB129
:102180000029F8D1546804F003040CB100201CE0CD
:1021900001201AE0022B17D1146824F0010444F046
:1021A0000204146000E0491E546804F00304022C89
:1021B00001D00029F7D1546804F00304022C01D0A7
:1021C000002002E0012000E0002010BD01460020B8
:1021D0000A6822F0010242F002020A604A6802F034
:1021E0000302022A00D10120704701464FF6FF7218
:1021F00000200B6823F002030B6000E0521E4B68C6
:1022000003F00203022B01D1002AF7D14B6803F03F
:102210000203022B00D001207047014600208A698A
:1022200002F070007047014600208A69100E704766
:10223000014600208A69C2F3074070471AB143691A
:102240000B43436102E043698B434361704710B520
:102250000246002001F4700343B19369C1F31304F3
:1022600023400BB101202DE000202BE001F0807312
:1022700043B15368C1F3130423400BB1012021E0A3
:1022800000201FE001F0006343B19368C1F3130421
:1022900023400BB1012015E0002013E001F0007392
:1022A00043B1D368C1F3130423400BB1012009E00B
:1022B000002007E01369C1F3130423400BB1012090
:1022C00000E0002010BD0022244B994202D10023DF
:1022D000836111E0C1F3130201F000730BB1C2601E
:1022E0000AE001F080630BB1026105E001F00063D8
:1022F0000BB1826000E0426070470246002002EAB3
:1023000001030BB1012000E00020704770B50446C6
:102310000D46002660692840002872D0B5F5807F00
:1023200069D01DDC082D42D006DC012D2DD0022DF8
:1023300031D0042D7FD134E0102D3ED0202D42D05D
:10234000402D78D145E000000300000400030008A0
:1023500000000310000100080001FFF77000F030DA
:10236000B5F5004F61D009DCB5F5007F4AD0B5F571
:10237000806F4DD0B5F5006F5DD150E0B5F5803F71
:102380002DD0B5F5003F56D12FE0A0685549FFF795
:10239000B4FF064651E0E0680321FFF7AEFF0646B2
:1023A0004BE0E0680821FFF7A8FF064645E0E0683B
:1023B0001021FFF7A2FF06463FE020690321FFF747
:1023C0009CFF064639E020690821FFF796FF064684
:1023D00033E020691021FFF790FF06462DE060688A
:1023E0000821FFF78AFF064627E060681021FFF703
:1023F00084FF064621E0A0690121FFF77EFF064623
:102400001BE01BE0A0690221FFF777FF064614E0FE
:10241000A0690421FFF771FF06460EE00BE0A069FA
:102420007021FFF76AFF064607E060680421FFF7A6
:1024300064FF064601E0002600BF00E000263046AB
:1024400070BDB1F5007F3AD00FDC202928D006DC22
:1024500001291CD004291DD0082940D11DE04029A4
:1024600021D0B1F5807F3AD126E0B1F5004F31D0CF
:1024700006DCB1F5806F25D0B1F5006F2FD124E0D7
:10248000B1F5803F12D0B1F5003F28D111E0154AD7
:10249000826025E00822C26022E01022C2601FE0B4
:1024A000082202611CE01022026119E00822426049
:1024B00016E01022426013E00422426010E0042281
:1024C00042600DE0042242600AE0002282610422A0
:1024D000426005E0002282610422426000E000BF09
:1024E00000BF70470101010010B504468C488442CA
:1024F00008D10121084600F007FB0021012000F06F
:1025000003FB5EE08748844208D10121022000F0ED
:10251000FBFA0021022000F0F7FA52E082488442E0
:1025200008D10121042000F0EFFA0021042000F07E
:10253000EBFA46E07D48844208D10121082000F0F2
:10254000E3FA0021082000F0DFFA3AE078488442FC
:1025500008D10121102000F0D7FA0021102000F04E
:10256000D3FA2EE07348844208D10121202000F0E4
:10257000CBFA0021202000F0C7FA22E06E48844206
:1025800008D10121402000F0BFFA0021402000F0D6
:10259000BBFA16E06948844208D10121802000F08E
:1025A000B3FA0021802000F0AFFA0AE064488442C8
:1025B00007D10121801500F0A7FA0021A01500F035
:1025C000A3FA10BDF0B50A4600210023002400BF85
:1025D0003DE0012505FA01F3156805EA03049C4274
:1025E00034D105684F000326BE40B5430560157918
:1025F0004E00B5400668354305601579012D02D0BF
:102600001579022D16D185684F000326BE40B543CB
:10261000856055794E00B5408668354385604568CC
:1026200001268E40B5434560456896798E40B6B226
:1026300035434560C5684F000326BE40B543C560BD
:10264000D5794E00B540C6683543C560491C102990
:10265000BFD3F0BD4FF6FF710160002101714171E0
:102660008171C171704708B54FF480320092009AB1
:102670000A430092009AC261C161009AC261C269B4
:102680000092C269009208BD0246002013690B4007
:102690000BB1012000E0002070470146086980B2BC
:1026A00070470246002053690B400BB1012000E047
:1026B000002070470146486980B270470183704727
:1026C000418370470AB1018300E041837047416153
:1026D000704742694A4042617047F0B500230024C8
:1026E0004D07ED0E02FA05F3CE1000F1200555F866
:1026F00026504E07F70E0F26BE40B543CF1000F10F
:10270000200646F82750CE1000F1200555F8265037
:1027100045EA0304CE1000F1200545F82640F0BD3F
:10272000000002400004024000080240000C024089
:10273000001002400014024000180240001C024039
:1027400000200240F948006840F00100F7490860A5
:102750000020F64908310860F4480068F449084050
:10276000F2490860F348091D0860F348EF498431D5
:102770000860EE48006820F48020EC4908600020E2
:10278000EA490C31086070470021E84A921C117038
:1027900011460870704710B5014600220023002042
:1027A0004A11012A02D1E14C236808E0022A03D130
:1027B000DE4C7034236802E0DC4C7434236801F092
:1027C0001F02012494401C400CB1012000E00020B5
:1027D00010BD38B5002000900024002500BF312036
:1027E000FFF7D9FF05460098401C00900098B0F50F
:1027F000A06F01D0002DF2D03120FFF7CCFF08B13F
:10280000012400E00024204638BD01460020C74ACC
:10281000106820F0F80040EAC10010607047C74916
:10282000086070470021C14A703211701170012890
:1028300002D004280AD104E00121BC4A7032117090
:1028400005E00521B94A7032117000E000BF00BFF9
:102850007047BB490860704770B5049C41EA821517
:102860000126C6EB530645EA0645054345EA0465DD
:10287000AE4E361D356070BDB049086670478201A6
:1028800042EA0172A94B84331A607047AB498866EB
:102890007047AA49C864704702460020A34B08331A
:1028A000186820F0EC6042EA010318439F4B08339C
:1028B00018607047024600209C4B0833186820F0CF
:1028C000784042EA01031843984B08331860704778
:1028D00001460020954A0832106820F003000843A2
:1028E0001060704791480830006800F00C00704795
:1028F000014600208D4A0832106820F0F00008439D
:102900001060704701460020884A0832106820F4A1
:10291000E05008431060704701460020834A0832A7
:10292000106820F4604040EAC10010607047F0B5C4
:102930000021002200240225002602237B4F0837B5
:102940003F6807F00C0121B1042905D0082937D1CF
:1029500005E07C4F076036E07B4F076033E0734F44
:102960003F1D3F68C7F38056704F3F1D3F6807F01B
:102970003F036EB1744FB7FBF3F7DFF8B0C10CF152
:10298000040CDCF800C0CCF3881C07FB0CF40CE052
:102990006C4FB7FBF3F7DFF894C10CF1040CDCF8D3
:1029A00000C0CCF3881C07FB0CF4604F3F1D3F6850
:1029B000C7F301477F1C7D00B4FBF5F7076002E019
:1029C000604F076000BF00BF584F08373F6807F0EF
:1029D000F00109095D4F7A5C0768D7404760534FA3
:1029E00008373F6807F4E051890A584F7A5C476816
:1029F000D74087604D4F08373F6807F46041490B67
:102A0000524F7A5C4768D740C760F0BD002100F4A0
:102A10004072B2F5407F0AD1444A0832116821F46D
:102A2000F8114B4A02401143404A083211603F4AB4
:102A300070321268C0F30B031A433C4B70331A60B8
:102A400070473F494439086070473D494039086044
:102A500070474049086070473F490860704739B186
:102A6000324A303212680243304B30331A6006E08B
:102A70002E4A3032126882432C4B30331A60704732
:102A800039B12A4A343212680243284B34331A606F
:102A900006E0264A343212688243244B34331A60EB
:102AA000704739B1214A3832126802431F4B38331C
:102AB0001A6006E01D4A3832126882431B4B3833D5
:102AC0001A60704739B1194A403212680243174BF5
:102AD00040331A6006E0154A403212688243134BB5
:102AE00040331A60704739B1104A443212680243C9
:102AF0000E4B44331A6006E00C4A4432126882439B
:102B00000A4B44331A60704739B1084A10321268D0
:102B10000243064B10331A6006E0044A1032126872
:102B20008243024B10331A607047000000380240A5
:102B3000FFFFF6FA1030002400300020000047426A
:102B4000800E47420024F40040787D018805002073
:102B5000FFFCFF0F5C014742E011474229B15E4A8A
:102B6000126802435C4B1A6004E05B4A12688243BD
:102B7000594B1A60704739B1574A121D1268024307
:102B8000554B1B1D1A6006E0534A121D1268824302
:102B9000514B1B1D1A60704739B14F4A0C321268F5
:102BA00002434D4B0C331A6006E04B4A0C3212685C
:102BB0008243494B0C331A60704739B1464A103290
:102BC00012680243444B10331A6006E0424A103246
:102BD00012688243404B10331A60704739B13E4A45
:102BE0003C32126802433C4B3C331A6006E03A4ADE
:102BF0003C3212688243384B3C331A60704739B11B
:102C0000354A403212680243334B40331A6006E0C3
:102C1000314A4032126882432F4B40331A6070476A
:102C200039B12D4A4432126802432B4B44331A60A7
:102C300006E0294A443212688243274B44331A6023
:102C4000704739B1244A4C3212680243224B4C334C
:102C50001A6006E0204A4C32126882431E4B4C3305
:102C60001A60704739B11C4A5032126802431A4B3D
:102C700050331A6006E0184A503212688243164BED
:102C800050331A60704739B1134AD21F1278024389
:102C9000114BDB1F1A7006E00F4AD21F12788243D5
:102CA0000D4BDB1F1A7070470B486030006840F016
:102CB0008070094960310860704701460020064A6B
:102CC000083A12680A400AB1012000E0002070476B
:102CD0000149891F087070471438024010B5044636
:102CE000FE48844208D101210846FFF766FF002113
:102CF0000120FFF762FF9DE0B4F1804F08D1012170
:102D00000846FFF749FF00210120FFF745FF91E04A
:102D1000F348844208D101210220FFF73DFF002142
:102D20000220FFF739FF85E0EE48844208D10121F7
:102D30000420FFF731FF00210420FFF72DFF79E089
:102D4000E948844208D101210820FFF725FF00212E
:102D50000820FFF721FF6DE0E448844208D10121FB
:102D60001020FFF719FF00211020FFF715FF61E089
:102D7000DF48844208D101212020FFF70DFF002108
:102D80002020FFF709FF55E0DA48844208D10121ED
:102D90000220FFF712FF00210220FFF70EFF49E09B
:102DA000D548844209D101210804FFF706FF00211C
:102DB0004FF48030FFF701FF3CE0D048844209D156
:102DC00001214804FFF7F9FE00214FF40030FFF71E
:102DD000F4FE2FE0CA48844209D101218804FFF79C
:102DE000ECFE00214FF48020FFF7E7FE22E0C5480B
:102DF000844208D101214020FFF7CEFE002140206F
:102E0000FFF7CAFE16E0C048844208D101218020A5
:102E1000FFF7C2FE00218020FFF7BEFE0AE0BB489C
:102E2000844207D101218015FFF7B6FE0021A015CD
:102E3000FFF7B2FE10BD00220288A84B98420ED0C8
:102E4000AC4B98420BD0B0F1804F08D0A44B9842C5
:102E500005D0A44B984202D0A34B984204D14FF620
:102E60008F731A404B881A43A04B984207D0A04B4F
:102E7000984204D04FF6FF431A400B891A43028050
:102E80004B68C3620B880385944B984202D0994BE0
:102E9000984201D18B7A03860123838270474FF0D9
:102EA000FF314160002101800181418081727047C2
:102EB0000185828270470A46002101884FF68F7390
:102EC000194011430180704741627047C1627047E9
:102ED0000146486A70470146088D704721B1028853
:102EE00042F00202028004E002884FF6FD731A40AD
:102EF0000280704721B1028842F00402028004E09F
:102F000002884FF6FB731A400280704721B1028895
:102F100042F08002028004E002884FF67F731A407C
:102F20000280704702884FF6F7731A4002800288C9
:102F30000A430280704702884FF6FF431A4002801E
:102F400002880A430280704721B1028842F00102E0
:102F5000028004E002884FF6FE731A400280704738
:102F600070B5002400220023058C4FF6FE76354014
:102F70000584028C8388048B4FF68F752C40B51E18
:102F80002C400D882C43751E2A408D892A434D887C
:102F90002A43524DA84202D0564DA84213D14FF6B3
:102FA000F7752A40CD892A434FF6FB752A408D8854
:102FB0002A434FF6FF652B404FF6FF552B400D8AF5
:102FC0002B434D8A2B43838004838D6845630284A1
:102FD00070BD70B5002400220023058C4FF6EF76FB
:102FE00035400584028C8388048B48F6FF752C409D
:102FF0004FF6FF452C400D884FF6FF7606EA052573
:103000002C434FF6DF752A408D8906EA05152A43C1
:103010004D8806EA05152A43304DA84202D0354DA9
:10302000A8421DD14FF67F752A40CD894FF6FF7615
:1030300006EA05152A434FF6BF752A408D8806EA31
:1030400005152A434FF6FF352B404FF2FF752B40F5
:103050000D8A06EA85052B434D8A06EA85052B4332
:10306000838004838D688563028470BD70B50024FD
:1030700000220023058C4FF6FF6635400584028C44
:103080008388848B4FF68F752C404FF6FC752C404F
:103090000D882C434FF6FF552A408D894FF6FF7659
:1030A00006EA05252A434D8806EA05252A430B4DE5
:1030B000A84202D00F4DA84238D14FF2FF752A40E6
:1030C000CD894FF6FF7606EA05252A434FF6FF35F0
:1030D0002A408D8806EA05252A4319E000000140B0
:1030E0000004004000080040000C004000100040B8
:1030F0000014004000040140004001400044014031
:103100000048014000180040001C00400020004022
:103110004EF6FF752B404DF6FF752B400D8A06EAE3
:1031200005152B434D8A06EA05152B4383808483BE
:103130008D68C563028470BD70B500220023002431
:10314000058C4EF6FF7635400584038C8488828B8F
:1031500048F6FF752A404FF6FF452A400D884FF686
:10316000FF7606EA05252A434DF6FF752B408D892B
:1031700006EA05352B434D8806EA05352B43FE4DFF
:10318000A84202D0FD4DA84208D14BF6FF752C4055
:103190000D8A4FF6FF7606EA85152C4384808283DC
:1031A0008D680564038470BD0021018041808180A9
:1031B00081608181C18101824182704770B503467F
:1031C000002000241846183001258D40ACB21D8C1B
:1031D000A5431D8409B108290AD100EB61000568E7
:1031E0004FF68F76354005600568154305600FE0A2
:1031F0000D1FC5F34E052844056848F6FF76354097
:10320000056005684FF6FF7606EA0226354305603D
:1032100070BD4163704781637047C163704701644B
:1032200070470A460021018B4FF68F7319401143F6
:10323000018370470A460021018B48F6FF7319404D
:103240004FF6FF7303EA02231943018370470A46CE
:103250000021818B4FF68F73194011438183704792
:103260000A460021818B48F6FF7319404FF6FF7321
:1032700003EA02231943818370470A460021018B28
:103280004FF6F77319401143018370470A46002136
:10329000018B4FF2FF7319404FF6FF7303EA0223CD
:1032A0001943018370470A460021818B4FF6F7735B
:1032B00019401143818370470A460021818B4FF2E8
:1032C000FF7319404FF6FF7303EA0223194381830A
:1032D00070470A460021018B4FF6FB7319401143DA
:1032E000018370470A460021018B4FF6FF331940D6
:1032F0004FF6FF7303EA02231943018370470A461E
:103300000021818B4FF6FB73194011438183704775
:103310000A460021818B4FF6FF3319404FF6FF73A9
:1033200003EA02231943818370470A460021018B77
:103330004FF67F7319401143018370470A460021FD
:10334000018BC1F30E014FF6FF7303EA0223194309
:10335000018370470A460021818B4FF67F73194025
:103360001143818370470A460021818BC1F30E010E
:103370004FF6FF7303EA02231943818370470A461D
:103380000021018C4FF6FD731940114301847047F1
:103390000A460021018C4FF6F7731940114301844E
:1033A00070470A460021018C4FF6DF7319404FF633
:1033B000FF7303EA02131943018470470A46002190
:1033C000018C4FF67F7319404FF6FF7303EA021327
:1033D0001943018470470A460021018C4FF6FF53C0
:1033E00019404FF6FF7303EA022319430184704723
:1033F0000A460021018C4FF2FF7319404FF6FF730C
:1034000003EA02231943018470470A460021018C14
:103410004DF6FF7319404FF6FF7303EA0233194369
:103420000184704730B5002301248C40A3B2048C82
:103430009C430484048C02FA01F5ADB22C4304844D
:1034400030BD30B5002304248C40A3B2048C9C43CF
:103450000484048C02FA01F5ADB22C43048430BD1F
:10346000828B4FF2FF331A408283828B4FF6FF73B9
:1034700003EA01231A4382837047F0B50C461546D0
:10348000002100220026078C4EF6FF7C07EA0C077D
:103490000784818B028C4FF6FF7707EA043640F6EB
:1034A000FF4739404FF6FF7707EA052739434FF6C4
:1034B000FF7707EA0337394345F6FF773A4046F48A
:1034C00080573A4381830284F0BD828B4FF6F373B9
:1034D0001A408283828B0A4382837047F0B50C4680
:1034E0001546002100220026078C4FF6FF6C07EAE4
:1034F0000C070784818B028C4FF6FF7707EA0426BE
:103500004FF60C7739404FF6FF7707EA03172F4342
:1035100039434FF2FF573A4046F480773A4381836C
:103520000284F0BD028B4FF2FF331A400283028BFC
:103530004FF6FF7303EA01231A4302837047F0B585
:103540000C461546002100220026078C4FF6EF7C22
:1035500007EA0C070784018B028C4FF6FF7707EA16
:10356000041640F6FF4739404FF6FF7707EA033766
:1035700039434FF6FF7703E00000014000040140AB
:1035800007EA052739434FF65F773A4046F01007C0
:103590003A4301830284F0BD028B4FF6F3731A4065
:1035A0000283028B0A4302837047F0B50C4615462E
:1035B00000210022068C4FF6FE773E400684018BE8
:1035C000028C4FF60C7631407E1C06EA03162E4321
:1035D00031434FF6F576324044F001063243018321
:1035E0000284F0BD70B505460C46208850B9238989
:1035F000A28861882846FFF7D8FFE1882846FFF7B0
:10360000CBFF25E0208804280AD12389A28861887D
:103610002846FFF794FFE1882846FFF783FF17E06D
:10362000208808280AD12389A28861882846FFF7C4
:1036300055FFE1882846FFF748FF09E02389A28863
:1036400061882846FFF719FFE1882846FFF708FF41
:1036500070BD002101804180012181800021C18055
:10366000018170472DE9F04105460C4600260127EF
:10367000608808B9022600E00026A088012801D150
:10368000022700E001272088A0B92389A288618849
:103690002846FFF78AFFE1882846FFF77DFF238948
:1036A0003A4631462846FFF74AFFE1882846FFF7A9
:1036B00039FF13E02389A28861882846FFF73FFF7E
:1036C000E1882846FFF72EFF23893A4631462846EF
:1036D000FFF76BFFE1882846FFF75EFFBDE8F0814A
:1036E0000146486B70470146886B70470146C86BBE
:1036F00070470146086C70470A884B881A438B88CC
:103700001A43CB881A430B891A434B891A438B8976
:103710001A43A0F844207047002101804180818035
:10372000C180018141818181704731B1B0F844206D
:1037300042F40042A0F8442005E0B0F84420C2F36F
:103740000E02A0F84420704721B1828842F00402A2
:10375000828004E082884FF6FB731A4082807047B3
:1037600021B1828842F00102828004E082884FF613
:10377000FE731A40828070471AB183890B4383819C
:1037800002E083898B4383817047818270470246C0
:103790000020138A0B400BB1012000E0002070478D
:1037A000CA430282704730B502460020002300243D
:1037B000158A05EA0103958905EA010413B10CB1E4
:1037C000012000E0002030BDCA430282704741EA78
:1037D0000203A0F8483070471AB183890B438381F4
:1037E00002E083898B438381704721B1828842F054
:1037F0000802828004E082884FF6F7731A408280C4
:10380000704701894FF6F8721140018170470A46EE
:10381000002101894FF68F731940114301817047D0
:1038200030B504460D4629462046FFF7F0FF2089B3
:1038300040F00700208130BD2DE9F04104460D46DF
:1038400016461F46602D06D13B46012231462046D2
:10385000FFF775FE05E03B46012231462046FFF7A3
:10386000A4FE29462046FFF7D2FF208940F007003A
:103870002081BDE8F08130B50C4600210189C9B234
:103880004FF6FF7505EA03251543254329430181BA
:1038900030BD2DE9F04105460E46174698460024F6
:1038A00043463A4631462846FFF7E5FF2C894FF656
:1038B000F870044044F007044FF68F70044044F061
:1038C00070042C81BDE8F081F0B504460D46164623
:1038D0001F463B46324629462046FFF7CCFF20894B
:1038E00040F480402081F0BD82884FF68F731A40EB
:1038F000828082880A438280704702894FF6F8737B
:103900001A40028102890A430281704702894FF6F8
:103910007F731A40028102890A4302817047F0B521
:103920000C4615461E460021002200230189028B09
:10393000038C4FF6F877394021434FF6FC473A4065
:1039400040F201173A434FF6DD773B404FF6FF77E1
:1039500007EA06172F433B43018102830384F0BD2E
:1039600021B1828842F08002828004E082884FF692
:103970007F731A4082807047A0F850107047000093
:1039800010B50446FA48844208D101211020FFF7FF
:1039900014F900211020FFF710F957E0F548844290
:1039A00009D101214804FFF7F7F800214FF4003056
:1039B000FFF7F2F84AE0F048844209D10121880477
:1039C000FFF7EAF800214FF48020FFF7E5F83DE02B
:1039D000EA48844209D10121C804FFF7DDF800213B
:1039E0004FF40020FFF7D8F830E0E548844209D1D1
:1039F00001210805FFF7D0F800214FF48010FFF7F0
:103A0000CBF823E0DF48844208D101212020FFF7D2
:103A1000D4F800212020FFF7D0F817E0DA488442DC
:103A200009D101218807FFF7B7F800214FF0804046
:103A3000FFF7B2F80AE0D548844207D101214005DA
:103A4000FFF7AAF800216005FFF7A6F810BD2DE9E1
:103A5000FF4705460E460024A14600BFA046B08998
:103A600000B100BF2C8A24F44054F08804432C8217
:103A7000AC8941F20C608443B08831890843718974
:103A800008430443AC81AC8A24F44074B0890443F5
:103A9000AC826846FEF74BFFB548854202D0B94874
:103AA000854202D1DDF80C9001E0DDF80890A8898C
:103AB00000F4004040B109EBC90000EB0910316887
:103AC0004900B0FBF1F707E009EBC90000EB091072
:103AD00031688900B0FBF1F76420B7FBF0F0040116
:103AE0002009642101FB1078A88900F4004040B14E
:103AF000322000EBC800B0FBF1F000F007000443F7
:103B000008E0322000EB08106421B0FBF1F000F077
:103B10000F0004432C81BDE8FF874FF4165101606C
:103B200000218180C18001810C214181002181819E
:103B3000704710B502460020108A20F470600B8890
:103B40004C8823438C882343CC882343184310821A
:103B500010BD0021018041808180C180704721B16A
:103B6000828942F40052828104E082894DF6FF731B
:103B70001A4082817047028B02F47F420283028BDB
:103B80000A430283704721B1828942F40042828154
:103B900003E08289C2F30E028281704721B1828ADA
:103BA00042F40062828204E0828A4FF2FF731A407C
:103BB00082827047C1F3080282807047014688887C
:103BC000C0F308007047028A4FF6F0731A40028271
:103BD000028A0A430282704721B1828942F00202BE
:103BE000828104E082894FF6FD731A40828170471A
:103BF00082894FF2FF731A40828182890A4382814F
:103C00007047028A4FF6DF731A400282028A0A4323
:103C10000282704721B1028A42F48042028204E0AB
:103C2000028A4BF6FF731A4002827047818941F085
:103C300001018181704721B1828A42F008028282AB
:103C400004E0828A4FF6F7731A4082827047028B33
:103C5000D2B20283028B42EA01220283704721B171
:103C6000828A42F02002828204E0828A4FF6DF7369
:103C70001A408282704721B1828A42F01002828209
:103C800004E0828A4FF6EF731A4082827047828A7C
:103C90004FF6FB731A408282828A0A4382827047FF
:103CA00021B1828A42F00202828204E0828A4FF6C7
:103CB000FD731A40828270471AB1838A0B43838254
:103CC00002E0838A8B4383827047F0B50346002469
:103CD00000260025002040F66A17B94200D100BF37
:103CE0001846C1F3421401F01F06012707FA06F532
:103CF000012C01D10C3004E0022C01D1103000E085
:103D000014301AB107682F43076002E00768AF4319
:103D10000760F0BD02460020B1F5007F00D100BF72
:103D200013880B400BB1012000E00020704701F424
:103D30000072B2F5007F00D100BFCA430280704715
:103D400070B50246002400230025002040F66A16C4
:103D5000B14200D100BFC1F3421501F01F0301269B
:103D600006FA03F3012D13D19689334017E00000C2
:103D7000001001400044004000480040004C00405A
:103D8000005000400014014000780040007C0040DA
:103D9000022D02D1168A334001E0968A33400C127C
:103DA000012606FA04F41688344013B10CB1012040
:103DB00000E0002070BD10B50022002340F66A1418
:103DC000A14200D100BF0A1201249440A3B2DC43F7
:103DD000048010BD0CB5002001900090764800686A
:103DE00040F480307449086000BF7348006800F4F4
:103DF000003000900198401C0190009818B901987B
:103E0000B0F5A06FF1D16C48006800F4003010B13B
:103E10000120009001E0002000900098012846D188
:103E200065484030006840F0805063494031086088
:103E30006248006840F44040604908605E480830CD
:103E400000685D49083108600846006840F4004099
:103E500008600846006840F4A05008605848091FF0
:103E60000860081F006840F08070091F086000BFEC
:103E70005148006800F000700028F9D040F2057049
:103E8000504908604C480830006820F003004A4957
:103E9000083108600846006840F00200086000BF72
:103EA00045480830006800F00C000828F8D10CBD27
:103EB00010B54548006840F47000434908603E482A
:103EC000006840F001003C49086000203A49083190
:103ED0000860394800683D490840374908603C4857
:103EE000091D0860081F006820F48020091F086071
:103EF000002031490C310860FFF76CFF4FF0006083
:103F000031498039086010BD70B5002000220223BD
:103F100000240221284D08352D6805F00C0020B141
:103F2000042806D0082834D107E02A4D2A4E3560EF
:103F300033E02A4D284E35602FE01F4D2D1D2D6892
:103F4000C5F380541C4D2D1D2D6805F03F0154B163
:103F5000224DB5FBF1F5184E361D3668C6F38816AE
:103F600005FB06F209E01B4DB5FBF1F5124E361DBF
:103F70003668C6F3881605FB06F20F4D2D1D2D6819
:103F8000C5F301456D1C6B00B2FBF3F5124E3560B5
:103F900003E0104D104E356000BF00BF064D0835E0
:103FA0002D68C5F303150E4E705D0B4D2D68C54091
:103FB000094E356070BD00000038024000700040BE
:103FC00019544007003C024088ED00E0FFFFF6FE78
:103FD000103000240024F4009805002040787D0172
:103FE0009C0500200648804706480047FEE7FEE79C
:103FF000FEE7FEE7FEE7FEE7FEE7FEE7FEE7FEE799
:10400000B13E0008890100087FB504460D46089EB0
:1040100041F2105005510020A4F8E8060B20C4F826
:10402000B001002084F8B401002140F2EE60015399
:10403000801E01530020A4F8EA0684F8101BC4F87F
:10404000C80540F2CC5001510020C4F8C00540F230
:10405000C45001510020C4F8D005C4F8D80540F27E
:10406000D45001510020C4F8E00540F2E450015161
:1040700040F2DC5001510020C4F8E80540F2EC5059
:1040800001510020C4F8F00540F2F45001510298AB
:10409000C4F8F80540F2FC5003990151002141F2A7
:1040A00014500155401C0155801C0155401E0155FE
:1040B000801E06550020207063206060C4F89316AF
:1040C000FF20C4F8DC009FEDEC0A84ED380A41F2D1
:1040D0001052105912591268516A8847C92104F1C7
:1040E000E40008F072F941F21052105912591268A6
:1040F000916A8847204606F013FE7FBD2DE9FE43F6
:1041000006460F4614461D46DDF828800195CDF879
:104110000880009439463046DDE90123FFF774FF3B
:104120003046BDE8FE830146D1F8930670477FB55F
:1041300082B004460D460A9E009629462046DDE9D7
:104140000423FFF761FF2046FFF7EDFF204606B08E
:1041500070BD7FB584B0044616461D462A463146DA
:1041600004F2B55008F00AF99DF8160000F01F019E
:10417000BDF8040061F30700ADF80400BDF81400B9
:10418000ADF806009DF81600C0F34011BDF804001C
:1041900061F30F20ADF8040004F2B55003900295CE
:1041A00001A9204606F0CAFC08B070BD2DE9F04F09
:1041B00085B004460E4617469846DDF838B0DDF85F
:1041C0004CA0DDF8409004F2B51505F8018B05F818
:1041D00001BB4A4604F2B7100F9908F0CFF81198C6
:1041E0000390BDF8000066F30100ADF8000009F18E
:1041F0000200019004F2B5100290BDF800006AF3CD
:10420000CF00ADF80000129880B2ADF80200BDF802
:10421000000067F38200ADF80000002004906946BA
:10422000204605F0D8FF05B0BDE8F08F2DE9F04F2E
:1042300085B004460F4616469846DDF838B0DDF8DE
:1042400048A0DDF8409004F2B51505F8018B05F89B
:1042500001BB4A4604F2B7100F9908F08FF8139883
:104260000390BDF8000067F30100ADF8000009F10C
:104270000200019004F2B5100290BDF800006AF34C
:10428000CF00ADF80000119880B2ADF80200BDF883
:10429000000066F38200ADF80000149804906946AF
:1042A000204605F098FF05B0BDE8F08F70B50446D4
:1042B0000D462946204605F08EFF70BD2DE9FF41D1
:1042C00004460D4617462868C0F309201038022816
:1042D0007CD82868C0F30920A0F1100205F10C0178
:1042E00003A808F04BF8BDF80C10204603F0ADFB16
:1042F000BDF80C0009286AD2DFE800F00550732FE2
:1043000094B5BCBBBA0040F299305C4B5CA25EA194
:104310000090674808F0D4FF0646701C58B1B6F507
:10432000806F08DA41F210510859095909684A6D3D
:104330000021904707E041F21051085909590968D6
:104340004A6D5CA19047D4F8E30620B1D4F8E31697
:10435000204605F08DFDBDE8FF8140F29F30474BC0
:1043600047A25C490090524808F0AAFF0646701C1C
:1043700058B1B6F5806F08DA41F210510859095961
:1043800009684A6D0021904707E041F21051085931
:10439000095909684A6D47A1904784E14FF4697053
:1043A000364B4DA24EA10090414808F089FF0646C9
:1043B000701C68B1B6F5806F0ADA41F210510859E5
:1043C000095909684A6D0021904709E06CE140E114
:1043D00041F210510859095909684A6D35A19047B1
:1043E00061E140F2A730254B3BA245A10090304847
:1043F00008F066FF0646701C58B1B6F5806F08DA03
:1044000041F210510859095909684A6D0021904735
:1044100007E041F210510859095909684A6D25A170
:10442000904740E140F2AA30144B2BA23CA10090EF
:104430001F4808F045FF0646701C58B1B6F5806F5E
:1044400008DA41F210510859095909684A6D0021EA
:10445000904707E041F210510859095909684A6D1F
:1044600014A190471FE140F2AD30044B1AA269E05D
:10447000CCE0A8E084E00000F023744961F3000878
:10448000535441545553000025732025732C6C69F7
:104490006E652025643A20416374697661746564B1
:1044A000207375636365737366756C6C790A0000BD
:1044B0003C2B00204552524F523A206C6F672070BF
:1044C00072696E74657220696E6E657220666175C0
:1044D0006C740A00340A01084552524F5200000021
:1044E00025732025732C6C696E652025643A20574E
:1044F000726F6E6720706172616D657465720A001B
:1045000025732025732C6C696E652025643A20453F
:104510006E636F6465206572726F720A000000003E
:1045200025732025732C6C696E652025643A204420
:104530004A49474F206E6F7420636F6E6E656374D7
:1045400065640A00F2A10090FE4808F0B9FE064634
:10455000701C58B1B6F5806F08DA41F21051085955
:10456000095909684A6D0021904708E041F210514D
:104570000859095909684A6DAFF2C801904792E09D
:1045800040F2B130F04BAFF2B002F0490090ED488C
:1045900008F096FE0646701C58B1B6F5806F08DA32
:1045A00041F210510859095909684A6D0021904794
:1045B00008E041F210510859095909684A6DAFF2F3
:1045C0000C1190476FE040F2B630DF4BAFF2F802CB
:1045D000DFA10090DB4808F073FE0646701C58B15E
:1045E000B6F5806F08DA41F2105108590959096887
:1045F0004A6D0021904708E041F2105108590959CD
:1046000009684A6DAFF2541190474CE040F2B9305E
:10461000CD4BAFF23C12D8A10090CA4808F050FE32
:104620000646701C58B1B6F5806F08DA41F2105199
:104630000859095909684A6D0021904708E041F27C
:1046400010510859095909684A6DAFF298119047FD
:1046500029E0BDF80C10204603F0DAF810BB40F258
:10466000BE30B94BAFF29012CEA10090B54808F021
:1046700027FE0646701C58B1B6F5806F08DA41F285
:1046800010510859095909684A6D0021904708E0FE
:1046900041F210510859095909684A6DAFF2EC11FD
:1046A000904700BF00BF29E0288980B22968C1F384
:1046B000046140F2C532A44BCDE900210290AFF273
:1046C000E812C3A19F4808F0FBFD0646701C58B1D4
:1046D000B6F5806F08DA41F2105108590959096896
:1046E0004A6D0021904708E041F2105108590959DC
:1046F00009684A6DAFF24421904700BF00BF2AE627
:104700002DE9F04188B004460D4616461F46D4F800
:104710009306002825D140F2CB10BC4BAFF24822C3
:10472000BBA10090874808F0CBFD804608F101004E
:1047300058B1B8F5806F08DA41F21051085909599B
:1047400009684A6D0021904708E041F2105108596C
:10475000095909684A6DAFF2A421904708B0BDE835
:10476000F081D4F89306A8603022294604F2B7609D
:1047700007F004FE0221C4F8BB16002004E030223A
:1047800004F2C3610A54401C2028F8DB0EB1304605
:1047900001E0AFF2D74003214FF47A72CDE905076B
:1047A000CDE903212C2104F2B76001220023CDE9D9
:1047B000002002911A4602212046FFF737FD00BF74
:1047C000CCE703B5A3B0402113A807F0FEFD4022BB
:1047D00013A8249907F0D2FD13A8129012981190F3
:1047E00012980178407801EB002081B22398A0F85C
:1047F00071161298801C129000200D900E900F9050
:1048000010900C904AE0129801780DAA0C9811545F
:104810000C98401C0C901298401C1290DDE911106D
:10482000401A12283ADD4FF48070864BAFF25832AE
:1048300085490090434808F043FD06900698401CC7
:10484000B0B10698B0F5806F12DA239800F5805069
:10485000D0F810050590239800F58050D0F8100589
:104860000068406D00210490DDE90420904712E0CB
:10487000239800F58050D0F810050590239800F596
:104880008050D0F810050068406DAFF2D831049028
:10489000DDE904209047002025B000BD1298007883
:1048A0000028B0D1129801780DAA0C9811541298D2
:1048B000401C12902022239800F29760129907F072
:1048C0005DFDE2E01298401C1290DDE91110401AE3
:1048D00040281CDD40F213105A4BAFF204425A49F3
:1048E0000090184808F0ECFC06900698401C68B14F
:1048F0000698B0F5806F09DA239800F58050D0F85B
:1049000010050590239800F580509FE0A8E0BCE0DA
:1049100025732025732C6C696E652025643A20442C
:104920004A49474F206E6F7420636F6E6E656374E3
:10493000656420746F2074686520696E7465726E9A
:1049400065740A003C2B002061F30008E8090108A7
:1049500025732025732C6C696E652025643A2057D9
:10496000726F6E672053444B207065726D6973736C
:10497000696F6E0A0000000025732025732C6C6996
:104980006E652025643A2053444B20766572736926
:104990006F6E20646964206E6F74206D617463684B
:1049A0000A00000025732025732C6C696E65202594
:1049B000643A205768696C652063616C6C696E6746
:1049C00020746869732066756E6374696F6E000089
:1049D00025732025732C6C696E652025643A20416F
:1049E000434B20697320657863657074696F6E2C22
:1049F0002073657373696F6E2069642025642C735E
:104A0000657175656E63652025640A002CF30008E6
:104A100025732025732C6C696E652025643A20501F
:104A20006C656173652063616C6C206765744472AA
:104A30006F6E6556657273696F6E20666972737406
:104A40002E0A00004BF300088C0A0108D0F810056C
:104A50000068406D00210490DDE90420904712E0D9
:104A6000239800F58050D0F810050590239800F5A4
:104A70008050D0F810050068406DAFF2C851049026
:104A8000DDE904209047002006E7129800782028EE
:104A90007FF418AF1298401C129041E01298401C0D
:104AA0001290DDE91110401A402839DD4FF4907062
:104AB000FD4BAFF2DC52FD490090FD4808F000FCD0
:104AC00006900698401CB0B10698B0F5806F12DAD7
:104AD000239800F58050D0F810050590239800F534
:104AE0008050D0F810050068406D00210490DDE989
:104AF0000420904712E0239800F58050D0F810056C
:104B00000590239800F58050D0F810050068406D9E
:104B1000AFF260610490DDE9042090470020BBE61D
:104B2000129800782028B9D11298401C12900020C9
:104B30000B904BE012980278239800F287600B9953
:104B400042541298401C12900B98401C0B90DDE9C7
:104B50001110401A402839DD40F23110D24BAFF22B
:104B60008862D2490090D24808F0AAFB06900698C5
:104B7000401CB0B10698B0F5806F12DA239800F5AA
:104B80008050D0F810050590239800F58050D0F89B
:104B900010050068406D00210490DDE90420904775
:104BA00012E0239800F58050D0F810050590239866
:104BB00000F58050D0F810050068406DAFF20C7120
:104BC0000490DDE904209047002065E61298007803
:104BD0002D28AFD10022239800F287600B99425410
:104BE0001298401C129000200A900990089007909B
:104BF00049E01298007830380A220A9902FB010035
:104C00000A901298401C1290DDE91110401A4028B9
:104C100039DD40F24510A44BAFF24472A349009035
:104C2000A34808F04DFB06900698401CB0B10698CA
:104C3000B0F5806F12DA239800F58050D0F8100597
:104C40000590239800F58050D0F810050068406D5D
:104C500000210490DDE90420904712E0239800F53C
:104C60008050D0F810050590239800F58050D0F8BA
:104C700010050068406DAFF2C4710490DDE90420B6
:104C80009047002008E6129800782E28B1D112989B
:104C9000401C129049E01298007830380A22099995
:104CA00002FB010009901298401C1290DDE91110DE
:104CB000401A402839DD4FF4A9707B4BAFF2E872FF
:104CC0007A4900907A4808F0FBFA06900698401C52
:104CD000B0B10698B0F5806F12DA239800F58050D5
:104CE000D0F810050590239800F58050D0F81005F5
:104CF0000068406D00210490DDE90420904712E037
:104D0000239800F58050D0F810050590239800F501
:104D10008050D0F810050068406DAFF6680104902F
:104D2000DDE9042090470020B6E5129800782E288F
:104D3000B1D11298401C129049E012980078303896
:104D40000A22089902FB010008901298401C129058
:104D5000DDE91110401A402839DD40F25F10524B56
:104D6000AFF68C0251490090514808F0A9FA06901C
:104D70000698401CB0B10698B0F5806F12DA2398FF
:104D800000F58050D0F810050590239800F580506C
:104D9000D0F810050068406D00210490DDE9042082
:104DA000904712E0239800F58050D0F81005059048
:104DB000239800F58050D0F810050068406DAFF6DC
:104DC0000C110490DDE904209047002064E512985E
:104DD00000782E28B1D11298401C129049E0129808
:104DE000007830380A22079902FB010007901298D8
:104DF000401C1290DDE91110401A402839DD4FF4B3
:104E0000B670294BAFF6301228490090284808F0B8
:104E100057FA06900698401CB0B10698B0F5806F1E
:104E200012DA239800F58050D0F8100505902398E9
:104E300000F58050D0F810050068406D0021049006
:104E4000DDE90420904712E0239800F58050D0F867
:104E500010050590239800F58050D0F810050068E3
:104E6000406DAFF6B0110490DDE9042090470020BA
:104E700012E5129800780028B1D14FF07F410A98CE
:104E800001EA00604FF47F02099902EA01410843F8
:104E90001212089902EA012108430799C9B2014395
:104EA0002398C0F8931605E04BF300088C0A01081C
:104EB0003C2B0020F3A1239800F2876007F097FABB
:104EC000D0B9089800EB8000400008904FF07F4177
:104ED0000A9801EA00604FF47F02099902EA014151
:104EE00008431212089902EA012108430799C9B23E
:104EF00001432398C0F893162398D0F89306E3490A
:104F000088421AD1089800EB8000400008904FF0CA
:104F10007F410A9801EA00604FF47F02099902EA92
:104F2000014108431212089902EA01210843079936
:104F3000C9B201432398C0F893162398D0F893067A
:104F4000D34988426DD29DF834009DF8351000EBAE
:104F500001209DF8361000EB01409DF8371000EB62
:104F600001612398C0F873160EA8069000200590E2
:104F70004BE006980278239800F2776105980A546E
:104F80000598401C05900698401C06900EA90698AE
:104F9000401A0C2839DD40F29510BE4BAFF6C822FE
:104FA000BDA10090C74808F08BF904900498401CFC
:104FB000B0B10498B0F5806F12DA239800F58050F4
:104FC000D0F810050390239800F58050D0F8100514
:104FD0000068406D00210290DDE90220904712E058
:104FE000239800F58050D0F810050390239800F521
:104FF0008050D0F810050068406DAFF6483102903F
:10500000DDE902209047002046E406980078002859
:10501000AFD106980278239800F277600599425440
:1050200060E000212398C0F873160DA806900020B8
:1050300005904BE006980278239800F27760059976
:1050400042540598401C05900698401C06900DA9F6
:105050000698401A102839DD40F2A9108D4BAFF6A2
:1050600088328DA10090974808F02AF9049004989E
:10507000401CB0B10498B0F5806F12DA239800F5A7
:105080008050D0F810050390239800F58050D0F898
:1050900010050068406D00210290DDE90220904774
:1050A00012E0239800F58050D0F810050390239863
:1050B00000F58050D0F810050068406DAFF60C4147
:1050C0000290DDE9022090470020DDE40698007898
:1050D0000028AFD106980278239800F277600599EE
:1050E000425400BF2398D0F89306774988423CD9B0
:1050F000239800F2776040F2B511664BAFF680421C
:10510000CDE9001071A16F4808F0DAF80690069812
:10511000401CB0B10698B0F5806F12DA239800F504
:105120008050D0F810050590239800F58050D0F8F5
:1051300010050068406D00210490DDE904209047CF
:1051400012E0239800F58050D0F8100505902398C0
:1051500000F58050D0F810050068406DAFF6AC4106
:105160000490DDE90420904700BF239800F2876097
:105170004FF4DC71474BAFF6F842CDE900105EA169
:10518000504808F09DF806900698401CB0B106986B
:10519000B0F5806F12DA239800F58050D0F8100532
:1051A0000590239800F58050D0F810050068406DF8
:1051B00000210490DDE90420904712E0239800F5D7
:1051C0008050D0F810050590239800F58050D0F855
:1051D00010050068406DAFF624510490DDE904200D
:1051E000904707A80BC80A9ACDE90123CDE903101F
:1051F0004FF4DD70274BAFF6785248A1009031484C
:1052000008F05EF806900698401CB0B10698B0F51C
:10521000806F12DA239800F58050D0F810050590C1
:10522000239800F58050D0F810050068406D0021EB
:105230000490DDE90420904712E0239800F58050A7
:10524000D0F810050590239800F58050D0F810058F
:105250000068406DAFF6A4510490DDE9042090474A
:105260002398D0F893060A4988420AD22398D0F8A6
:1052700073064FF4DF71074BAFF6FC52CDE9001017
:1052800060E092E04D31303000000000000A02037F
:10529000000002034BF3000825732025732C6C6972
:1052A0006E652025643A2044726F6E652049442063
:1052B000776173206E6F74206F627461696E6564CC
:1052C0002E0000003C2B0020000001032573202548
:1052D000732C6C696E652025643A20446576696399
:1052E000652053657269616C204E6F2E203D20252C
:1052F0002E3136730A00000025732025732C6C694B
:105300006E652025643A2048617264776172652079
:105310003D20252E3132730A000000002573202520
:10532000732C6C696E652025643A204669726D772E
:10533000617265203D2025642E25642E25642E256E
:10534000640A0000F4A1FD4807F0BAFF0690069831
:10535000401CB0B10698B0F5806F12DA239800F5C2
:105360008050D0F810050590239800F58050D0F8B3
:1053700010050068406D00210490DDE9042090478D
:1053800012E0239800F58050D0F81005059023987E
:1053900000F58050D0F810050068406DAFF6EC6164
:1053A0000490DDE90420904700BF01200DE42DE9C1
:1053B000F04389B006460C4615464FF6FF70A4F838
:1053C00071060021C4F87316C4F8931684F8971672
:1053D00064274FF0030800200890CDE9048003976C
:1053E0000690012008A900221346CDE90021029071
:1053F00002212046FEF71AFF41F2105210591259AD
:105400001268D16A884741F2105108590959096850
:105410008A6B2946904741F210521059125912686E
:10542000116B884704F1700949462046FFF7C9F916
:1054300030B90021C4F87316C4F8931684F897168F
:10544000462204F27161304606F098FF09B0BDE8CB
:10545000F08370B592B004460D461646D4F8930614
:1054600020B9012221466846FFF7A1FFD4F8930630
:10547000A8603022294604F2B76006F07FFF0221BF
:10548000C4F8BB16002004E0302204F2C3610A54C1
:10549000401C2028F8DB002003224FF47A73CDE96A
:1054A00004202C210393069004F2B760012200230C
:1054B000CDE9002002911A4602212046FEF7B6FEF1
:1054C00041F21052105912591268D16A884741F2BC
:1054D00010510859095909688A6B3146904741F2C1
:1054E0001052105912591268116B8847B4F87000A5
:1054F0006060606838B9D4F8E30620B1D4F8E316E8
:10550000204604F0B5FCA08880B212B070BDF0B5A2
:1055100089B004460D4617464FF6FF7008900120EB
:1055200007902868C0F30920103802280AD8286894
:10553000C0F30920A0F1100205F10C0108A806F043
:105540001DFF29E0288980B22968C1F3046140F277
:1055500003527B4BCDE9002102907A4AAFF690319D
:10556000764807F0ADFE0646701C58B1B6F5806F60
:1055700008DA41F210510859095909684A6D0021A9
:10558000904708E041F210510859095909684A6DDD
:105590006C492439904700BFBDF82000032870D023
:1055A00005DC48B1012853D002286BD176E00428ED
:1055B00069D0C928F9D1A9E1D4F893066249884293
:1055C00022D240F20D505E4B5E4A583A5FA10090E5
:1055D0005A4807F075FE0646701C58B1B6F5806F44
:1055E00008DA41F210510859095909684A6D002139
:1055F000904708E041F210510859095909684A6D6D
:1056000050492439904722E040F212504C4B4D4A09
:10561000583A5CA10090494807F052FE0646701CBB
:1056200058B1B6F5806F08DA41F21051085909599E
:1056300009684A6D0021904708E041F2105108596D
:10564000095909684A6D3F492439904700BFA9E1CB
:1056500040F217503A4B3B4A583A58A1009037480D
:1056600007F02EFE0646701C70B1B6F5806F0BDA9F
:1056700041F210510859095909684A6D00219047B3
:105680000BE02EE064E102E141F2105108590959A2
:1056900009684A6D2B492439904783E140F21A503A
:1056A000274B284A583A51A10090244807F008FE99
:1056B0000646701C58B1B6F5806F08DA41F21051F9
:1056C0000859095909684A6D0021904708E041F2DC
:1056D00010510859095909684A6D1A4924399047E7
:1056E00060E140F21D50164B164A583A4BA100900B
:1056F000124807F0E5FD0646701C58B1B6F5806FFC
:1057000008DA41F210510859095909684A6D002117
:1057100090479FE096E0000025732025732C6C696C
:105720006E652025643A2056657273696F6E20435A
:105730005243203D20307825580A00003C2B0020A1
:1057400072F30008D84400080000020325732025E6
:10575000732C6C696E652025643A204F6274616910
:105760006E20636F6E74726F6C206661696C656425
:105770003A2073776974636820746F2046206D6FD8
:1057800064650A0025732025732C6C696E652025DD
:10579000643A204F627461696E20636F6E74726F39
:1057A0006C206661696C65643A207377697463681C
:1057B00020746F2050206D6F64650A0025732025CA
:1057C000732C6C696E652025643A2052656C6561A6
:1057D00073656420636F6E74726F6C20737563639E
:1057E00065737366756C6C790A000000257320255B
:1057F000732C6C696E652025643A204F6274616970
:105800006E656420636F6E74726F6C207375636372
:1058100065737366756C6C790A000000257320252A
:10582000732C6C696E652025643A204F627461693F
:105830006E20636F6E74726F6C2072756E6E696E1F
:10584000670A000041F210510859095909684A6D68
:10585000FE4990470020AFF2493102224FF4FA731B
:10586000CDE90332CDE90510012007A90022CDE9D9
:1058700000210290F648007808B1012000E00020E5
:105880000246012302212046FEF7D0FC8AE040F2C6
:105890002250F04BED4A343AEFA10090F84807F05F
:1058A0000FFD0646701C58B1B6F5806F08DA41F25C
:1058B00010510859095909684A6D0021904707E0BD
:1058C00041F210510859095909684A6DDF4990475A
:1058D00000200790AFF2C93102224FF4FA73CDE9EC
:1058E0000332CDE90510012007A90022CDE90021EE
:1058F0000290D748007808B1012000E0002002465D
:10590000012302212046FEF791FC4BE04FF4A560F5
:10591000D04BCE4A343ADBA10090D94807F0D0FCF6
:105920000646701C58B1B6F5806F08DA41F2105186
:105930000859095909684A6D0021904707E041F26A
:1059400010510859095909684A6DC049904729E022
:10595000BDF82010204601F05BFF10BB40F22E5036
:10596000BC4BBA4A2432AFF6C4710090C44807F069
:10597000A7FC0646701C58B1B6F5806F08DA41F2F4
:1059800010510859095909684A6D0021904707E0EC
:1059900041F210510859095909684A6DAB499047BD
:1059A00000BF00BF00BF09B0F0BDF0B589B0074629
:1059B0000C4615461E4608940DB1284601E0AFF28C
:1059C000B14002214FF4FA72CDE90506CDE9032179
:1059D000012008A90022CDE9002102909C4800780E
:1059E00008B1012000E000200246012302213846D0
:1059F000FEF71CFC09B0F0BD70B588B004460D463A
:105A000016460795002002224FF4FA73CDE90420D0
:105A100003930690012007A90022CDE900210290FE
:105A20008B48007808B1012000E0002002460123E5
:105A300002212046FEF7FAFB41F21052105912598A
:105A40001268D16A884741F210510859095909680A
:105A50008A6B3146904741F2105210591259126820
:105A6000116B8847B4F8700058B9D4F8930693497D
:105A7000884203D20620A4F8700002E00520A4F8B2
:105A80007000B4F8700008B070BD70B505460C46E3
:105A9000302204F2B761284606F070FC70BD70B584
:105AA00004460D463022294604F2B76006F066FC33
:105AB00070BD2DE9FF4104460D4617464FF6FF70B5
:105AC00003902868C0F309201038022833D82868CA
:105AD000C0F30920A0F1100205F10C0103A806F0A3
